{
  "_format": "hh-sol-artifact-1",
  "contractName": "GasEfficientArbitrage",
  "sourceName": "contracts/Arbitrage.sol",
  "abi": [
    {
      "inputs": [
        {
          "internalType": "address",
          "name": "_uniswapRouter",
          "type": "address"
        },
        {
          "internalType": "address",
          "name": "_daiToken",
          "type": "address"
        },
        {
          "internalType": "address",
          "name": "_wethToken",
          "type": "address"
        }
      ],
      "stateMutability": "nonpayable",
      "type": "constructor"
    },
    {
      "inputs": [],
      "name": "daiToken",
      "outputs": [
        {
          "internalType": "address",
          "name": "",
          "type": "address"
        }
      ],
      "stateMutability": "view",
      "type": "function"
    },
    {
      "inputs": [
        {
          "internalType": "address",
          "name": "token",
          "type": "address"
        },
        {
          "internalType": "uint256",
          "name": "amount",
          "type": "uint256"
        }
      ],
      "name": "emergencyWithdraw",
      "outputs": [],
      "stateMutability": "nonpayable",
      "type": "function"
    },
    {
      "inputs": [
        {
          "internalType": "uint256",
          "name": "amountIn",
          "type": "uint256"
        }
      ],
      "name": "executeArbitrage",
      "outputs": [],
      "stateMutability": "nonpayable",
      "type": "function"
    },
    {
      "inputs": [],
      "name": "owner",
      "outputs": [
        {
          "internalType": "address",
          "name": "",
          "type": "address"
        }
      ],
      "stateMutability": "view",
      "type": "function"
    },
    {
      "inputs": [],
      "name": "uniswapRouter",
      "outputs": [
        {
          "internalType": "contract IUniswapV2Router",
          "name": "",
          "type": "address"
        }
      ],
      "stateMutability": "view",
      "type": "function"
    },
    {
      "inputs": [],
      "name": "wethToken",
      "outputs": [
        {
          "internalType": "address",
          "name": "",
          "type": "address"
        }
      ],
      "stateMutability": "view",
      "type": "function"
    }
  ],
  "bytecode": "0x608060405234801561001057600080fd5b50604051610e20380380610e20833981810160405281019061003291906101a0565b826000806101000a81548173ffffffffffffffffffffffffffffffffffffffff021916908373ffffffffffffffffffffffffffffffffffffffff16021790555033600160006101000a81548173ffffffffffffffffffffffffffffffffffffffff021916908373ffffffffffffffffffffffffffffffffffffffff16021790555081600260006101000a81548173ffffffffffffffffffffffffffffffffffffffff021916908373ffffffffffffffffffffffffffffffffffffffff16021790555080600360006101000a81548173ffffffffffffffffffffffffffffffffffffffff021916908373ffffffffffffffffffffffffffffffffffffffff1602179055505050506101f3565b600080fd5b600073ffffffffffffffffffffffffffffffffffffffff82169050919050565b600061016d82610142565b9050919050565b61017d81610162565b811461018857600080fd5b50565b60008151905061019a81610174565b92915050565b6000806000606084860312156101b9576101b861013d565b5b60006101c78682870161018b565b93505060206101d88682870161018b565b92505060406101e98682870161018b565b9150509250925092565b610c1e806102026000396000f3fe608060405234801561001057600080fd5b50600436106100625760003560e01c80634b57b0be14610067578063735de9f7146100855780638da5cb5b146100a357806395ccea67146100c1578063be22f546146100dd578063f7c7724f146100fb575b600080fd5b61006f610117565b60405161007c9190610628565b60405180910390f35b61008d61013d565b60405161009a91906106a2565b60405180910390f35b6100ab610161565b6040516100b89190610628565b60405180910390f35b6100db60048036038101906100d69190610733565b610187565b005b6100e56102bc565b6040516100f29190610628565b60405180910390f35b61011560048036038101906101109190610773565b6102e2565b005b600360009054906101000a900473ffffffffffffffffffffffffffffffffffffffff1681565b60008054906101000a900473ffffffffffffffffffffffffffffffffffffffff1681565b600160009054906101000a900473ffffffffffffffffffffffffffffffffffffffff1681565b600160009054906101000a900473ffffffffffffffffffffffffffffffffffffffff1673ffffffffffffffffffffffffffffffffffffffff163373ffffffffffffffffffffffffffffffffffffffff1614610217576040517f08c379a000000000000000000000000000000000000000000000000000000000815260040161020e906107fd565b60405180910390fd5b8173ffffffffffffffffffffffffffffffffffffffff1663a9059cbb600160009054906101000a900473ffffffffffffffffffffffffffffffffffffffff16836040518363ffffffff1660e01b815260040161027492919061082c565b6020604051808303816000875af1158015610293573d6000803e3d6000fd5b505050506040513d601f19601f820116820180604052508101906102b7919061088d565b505050565b600260009054906101000a900473ffffffffffffffffffffffffffffffffffffffff1681565b600160009054906101000a900473ffffffffffffffffffffffffffffffffffffffff1673ffffffffffffffffffffffffffffffffffffffff163373ffffffffffffffffffffffffffffffffffffffff1614610372576040517f08c379a0000000000000000000000000000000000000000000000000000000008152600401610369906107fd565b60405180910390fd5b6060600260009054906101000a900473ffffffffffffffffffffffffffffffffffffffff16816000815181106103ab576103aa6108ba565b5b602002602001019073ffffffffffffffffffffffffffffffffffffffff16908173ffffffffffffffffffffffffffffffffffffffff1681525050600360009054906101000a900473ffffffffffffffffffffffffffffffffffffffff168160018151811061041c5761041b6108ba565b5b602002602001019073ffffffffffffffffffffffffffffffffffffffff16908173ffffffffffffffffffffffffffffffffffffffff168152505060008060009054906101000a900473ffffffffffffffffffffffffffffffffffffffff1673ffffffffffffffffffffffffffffffffffffffff1663d06ca61f84846040518363ffffffff1660e01b81526004016104b49291906109a7565b600060405180830381865afa1580156104d1573d6000803e3d6000fd5b505050506040513d6000823e3d601f19601f820116820180604052508101906104fa9190610b45565b9050600081600181518110610512576105116108ba565b5b6020026020010151905060006105266105e2565b9050808211156105db5760008054906101000a900473ffffffffffffffffffffffffffffffffffffffff1673ffffffffffffffffffffffffffffffffffffffff166338ed173986848730426040518663ffffffff1660e01b8152600401610591959493929190610b8e565b6000604051808303816000875af11580156105b0573d6000803e3d6000fd5b505050506040513d6000823e3d601f19601f820116820180604052508101906105d99190610b45565b505b5050505050565b600090565b600073ffffffffffffffffffffffffffffffffffffffff82169050919050565b6000610612826105e7565b9050919050565b61062281610607565b82525050565b600060208201905061063d6000830184610619565b92915050565b6000819050919050565b600061066861066361065e846105e7565b610643565b6105e7565b9050919050565b600061067a8261064d565b9050919050565b600061068c8261066f565b9050919050565b61069c81610681565b82525050565b60006020820190506106b76000830184610693565b92915050565b6000604051905090565b600080fd5b600080fd5b6106da81610607565b81146106e557600080fd5b50565b6000813590506106f7816106d1565b92915050565b6000819050919050565b610710816106fd565b811461071b57600080fd5b50565b60008135905061072d81610707565b92915050565b6000806040838503121561074a576107496106c7565b5b6000610758858286016106e8565b92505060206107698582860161071e565b9150509250929050565b600060208284031215610789576107886106c7565b5b60006107978482850161071e565b91505092915050565b600082825260208201905092915050565b7f4e6f742074686520636f6e7472616374206f776e657200000000000000000000600082015250565b60006107e76016836107a0565b91506107f2826107b1565b602082019050919050565b60006020820190508181036000830152610816816107da565b9050919050565b610826816106fd565b82525050565b60006040820190506108416000830185610619565b61084e602083018461081d565b9392505050565b60008115159050919050565b61086a81610855565b811461087557600080fd5b50565b60008151905061088781610861565b92915050565b6000602082840312156108a3576108a26106c7565b5b60006108b184828501610878565b91505092915050565b7f4e487b7100000000000000000000000000000000000000000000000000000000600052603260045260246000fd5b600081519050919050565b600082825260208201905092915050565b6000819050602082019050919050565b61091e81610607565b82525050565b60006109308383610915565b60208301905092915050565b6000602082019050919050565b6000610954826108e9565b61095e81856108f4565b935061096983610905565b8060005b8381101561099a5781516109818882610924565b975061098c8361093c565b92505060018101905061096d565b5085935050505092915050565b60006040820190506109bc600083018561081d565b81810360208301526109ce8184610949565b90509392505050565b600080fd5b6000601f19601f8301169050919050565b7f4e487b7100000000000000000000000000000000000000000000000000000000600052604160045260246000fd5b610a25826109dc565b810181811067ffffffffffffffff82111715610a4457610a436109ed565b5b80604052505050565b6000610a576106bd565b9050610a638282610a1c565b919050565b600067ffffffffffffffff821115610a8357610a826109ed565b5b602082029050602081019050919050565b600080fd5b600081519050610aa881610707565b92915050565b6000610ac1610abc84610a68565b610a4d565b90508083825260208201905060208402830185811115610ae457610ae3610a94565b5b835b81811015610b0d5780610af98882610a99565b845260208401935050602081019050610ae6565b5050509392505050565b600082601f830112610b2c57610b2b6109d7565b5b8151610b3c848260208601610aae565b91505092915050565b600060208284031215610b5b57610b5a6106c7565b5b600082015167ffffffffffffffff811115610b7957610b786106cc565b5b610b8584828501610b17565b91505092915050565b600060a082019050610ba3600083018861081d565b610bb0602083018761081d565b8181036040830152610bc28186610949565b9050610bd16060830185610619565b610bde608083018461081d565b969550505050505056fea2646970667358221220097201d9def65e73f5993118367d8615eb6b12dfd6bbac50dc90bc6ca5dc2a5064736f6c634300081b0033",
  "linkReferences": {},
  "deployedLinkReferences": {}
}