{"contracts/Arbitrage.sol":{"GasEfficientArbitrage":{"abi":[{"inputs":[{"internalType":"address","name":"_uniswapRouter","type":"address"},{"internalType":"address","name":"_daiToken","type":"address"},{"internalType":"address","name":"_wethToken","type":"address"}],"stateMutability":"nonpayable","type":"constructor"},{"inputs":[],"name":"daiToken","outputs":[{"internalType":"address","name":"","type":"address"}],"stateMutability":"view","type":"function"},{"inputs":[{"internalType":"address","name":"token","type":"address"},{"internalType":"uint256","name":"amount","type":"uint256"}],"name":"emergencyWithdraw","outputs":[],"stateMutability":"nonpayable","type":"function"},{"inputs":[{"internalType":"uint256","name":"amountIn","type":"uint256"}],"name":"executeArbitrage","outputs":[],"stateMutability":"nonpayable","type":"function"},{"inputs":[],"name":"owner","outputs":[{"internalType":"address","name":"","type":"address"}],"stateMutability":"view","type":"function"},{"inputs":[],"name":"uniswapRouter","outputs":[{"internalType":"contract IUniswapV2Router","name":"","type":"address"}],"stateMutability":"view","type":"function"},{"inputs":[],"name":"wethToken","outputs":[{"internalType":"address","name":"","type":"address"}],"stateMutability":"view","type":"function"}],"evm":{"bytecode":{"linkReferences":{},"object":"608060405234801561001057600080fd5b506040516111bd3803806111bd83398181016040528101906100329190610225565b61004c673dea0073f2db284d60c01b6101bf60201b60201c565b61006667b188a2999c83b13d60c01b6101bf60201b60201c565b826000806101000a81548173ffffffffffffffffffffffffffffffffffffffff021916908373ffffffffffffffffffffffffffffffffffffffff1602179055506100c06718f7e52fdae2188e60c01b6101bf60201b60201c565b33600160006101000a81548173ffffffffffffffffffffffffffffffffffffffff021916908373ffffffffffffffffffffffffffffffffffffffff16021790555061011b67a6629ca7110f5f8c60c01b6101bf60201b60201c565b81600260006101000a81548173ffffffffffffffffffffffffffffffffffffffff021916908373ffffffffffffffffffffffffffffffffffffffff16021790555061017667593b92450f36a82f60c01b6101bf60201b60201c565b80600360006101000a81548173ffffffffffffffffffffffffffffffffffffffff021916908373ffffffffffffffffffffffffffffffffffffffff160217905550505050610278565b50565b600080fd5b600073ffffffffffffffffffffffffffffffffffffffff82169050919050565b60006101f2826101c7565b9050919050565b610202816101e7565b811461020d57600080fd5b50565b60008151905061021f816101f9565b92915050565b60008060006060848603121561023e5761023d6101c2565b5b600061024c86828701610210565b935050602061025d86828701610210565b925050604061026e86828701610210565b9150509250925092565b610f36806102876000396000f3fe608060405234801561001057600080fd5b50600436106100625760003560e01c80634b57b0be14610067578063735de9f7146100855780638da5cb5b146100a357806395ccea67146100c1578063be22f546146100dd578063f7c7724f146100fb575b600080fd5b61006f610117565b60405161007c9190610940565b60405180910390f35b61008d61013d565b60405161009a91906109ba565b60405180910390f35b6100ab610161565b6040516100b89190610940565b60405180910390f35b6100db60048036038101906100d69190610a4b565b610187565b005b6100e5610398565b6040516100f29190610940565b60405180910390f35b61011560048036038101906101109190610a8b565b6103be565b005b600360009054906101000a900473ffffffffffffffffffffffffffffffffffffffff1681565b60008054906101000a900473ffffffffffffffffffffffffffffffffffffffff1681565b600160009054906101000a900473ffffffffffffffffffffffffffffffffffffffff1681565b61019b67f85d1c51ed11267660c01b6108b7565b6101af673ca0db0265a105b060c01b6108b7565b6101c367f7a4c11e486ff47c60c01b6108b7565b6101d767cb30f5976c9cebc760c01b6108b7565b6101eb67032292115e57233760c01b6108b7565b600160009054906101000a900473ffffffffffffffffffffffffffffffffffffffff1673ffffffffffffffffffffffffffffffffffffffff163373ffffffffffffffffffffffffffffffffffffffff161461027b576040517f08c379a000000000000000000000000000000000000000000000000000000000815260040161027290610b15565b60405180910390fd5b61028f67a65ea24d7052458960c01b6108b7565b6102a3671ea80d8b306acf0560c01b6108b7565b6102b7677b9edf65493d08a260c01b6108b7565b6102cb67d6f13de8e6d6a87260c01b6108b7565b6102df672fa6a708c8b4fda760c01b6108b7565b6102f3674dbd4a9ba61423ef60c01b6108b7565b8173ffffffffffffffffffffffffffffffffffffffff1663a9059cbb600160009054906101000a900473ffffffffffffffffffffffffffffffffffffffff16836040518363ffffffff1660e01b8152600401610350929190610b44565b6020604051808303816000875af115801561036f573d6000803e3d6000fd5b505050506040513d601f19601f820116820180604052508101906103939190610ba5565b505050565b600260009054906101000a900473ffffffffffffffffffffffffffffffffffffffff1681565b6103d26773ad0ddd5de400af60c01b6108b7565b6103e6673ca0db0265a105b060c01b6108b7565b6103fa67f7a4c11e486ff47c60c01b6108b7565b61040e67cb30f5976c9cebc760c01b6108b7565b61042267032292115e57233760c01b6108b7565b600160009054906101000a900473ffffffffffffffffffffffffffffffffffffffff1673ffffffffffffffffffffffffffffffffffffffff163373ffffffffffffffffffffffffffffffffffffffff16146104b2576040517f08c379a00000000000000000000000000000000000000000000000000000000081526004016104a990610b15565b60405180910390fd5b6104c667a65ea24d7052458960c01b6108b7565b6104da671ea80d8b306acf0560c01b6108b7565b6104ee67d7c96055103a052a60c01b6108b7565b61050267a489dee3524d877a60c01b6108b7565b610516675ac7ab736bc26cbf60c01b6108b7565b61052a674d9029fa2685fdcc60c01b6108b7565b606061054067fb0a7a03baad1c6360c01b6108b7565b600260009054906101000a900473ffffffffffffffffffffffffffffffffffffffff168160008151811061057757610576610bd2565b5b602002602001019073ffffffffffffffffffffffffffffffffffffffff16908173ffffffffffffffffffffffffffffffffffffffff16815250506105c5675f28c879f3248cdc60c01b6108b7565b600360009054906101000a900473ffffffffffffffffffffffffffffffffffffffff16816001815181106105fc576105fb610bd2565b5b602002602001019073ffffffffffffffffffffffffffffffffffffffff16908173ffffffffffffffffffffffffffffffffffffffff168152505061064a67d9e44e8830a6f9a360c01b6108b7565b61065e67a9ea9e54d26e359660c01b6108b7565b60008060009054906101000a900473ffffffffffffffffffffffffffffffffffffffff1673ffffffffffffffffffffffffffffffffffffffff1663d06ca61f84846040518363ffffffff1660e01b81526004016106bc929190610cbf565b600060405180830381865afa1580156106d9573d6000803e3d6000fd5b505050506040513d6000823e3d601f19601f820116820180604052508101906107029190610e5d565b905061071867f1217e974db1132160c01b6108b7565b61072c674e4dde725245878760c01b6108b7565b60008160018151811061074257610741610bd2565b5b6020026020010151905061076067bb68e042a2b5e0a760c01b6108b7565b6107746758276f14fd3ef65560c01b6108b7565b600061077e6108ba565b9050610794674afab66dd503e2b460c01b6108b7565b6107a8670166b6c65e50d81660c01b6108b7565b8082111561089b576107c467cb869fc9c0de84de60c01b6108b7565b6107d867b8db6dc91947d01b60c01b6108b7565b6107ec6779a92dbda6a0aa4a60c01b6108b7565b60008054906101000a900473ffffffffffffffffffffffffffffffffffffffff1673ffffffffffffffffffffffffffffffffffffffff166338ed173986848730426040518663ffffffff1660e01b815260040161084d959493929190610ea6565b6000604051808303816000875af115801561086c573d6000803e3d6000fd5b505050506040513d6000823e3d601f19601f820116820180604052508101906108959190610e5d565b506108b0565b6108af6734ae4da4ff0c055b60c01b6108b7565b5b5050505050565b50565b60006108d0674d4a56a2bfddcfa860c01b6108b7565b6108e467d5657f6449dda43a60c01b6108b7565b6108f867795f17cb564db22d60c01b6108b7565b6000905090565b600073ffffffffffffffffffffffffffffffffffffffff82169050919050565b600061092a826108ff565b9050919050565b61093a8161091f565b82525050565b60006020820190506109556000830184610931565b92915050565b6000819050919050565b600061098061097b610976846108ff565b61095b565b6108ff565b9050919050565b600061099282610965565b9050919050565b60006109a482610987565b9050919050565b6109b481610999565b82525050565b60006020820190506109cf60008301846109ab565b92915050565b6000604051905090565b600080fd5b600080fd5b6109f28161091f565b81146109fd57600080fd5b50565b600081359050610a0f816109e9565b92915050565b6000819050919050565b610a2881610a15565b8114610a3357600080fd5b50565b600081359050610a4581610a1f565b92915050565b60008060408385031215610a6257610a616109df565b5b6000610a7085828601610a00565b9250506020610a8185828601610a36565b9150509250929050565b600060208284031215610aa157610aa06109df565b5b6000610aaf84828501610a36565b91505092915050565b600082825260208201905092915050565b7f4e6f742074686520636f6e7472616374206f776e657200000000000000000000600082015250565b6000610aff601683610ab8565b9150610b0a82610ac9565b602082019050919050565b60006020820190508181036000830152610b2e81610af2565b9050919050565b610b3e81610a15565b82525050565b6000604082019050610b596000830185610931565b610b666020830184610b35565b9392505050565b60008115159050919050565b610b8281610b6d565b8114610b8d57600080fd5b50565b600081519050610b9f81610b79565b92915050565b600060208284031215610bbb57610bba6109df565b5b6000610bc984828501610b90565b91505092915050565b7f4e487b7100000000000000000000000000000000000000000000000000000000600052603260045260246000fd5b600081519050919050565b600082825260208201905092915050565b6000819050602082019050919050565b610c368161091f565b82525050565b6000610c488383610c2d565b60208301905092915050565b6000602082019050919050565b6000610c6c82610c01565b610c768185610c0c565b9350610c8183610c1d565b8060005b83811015610cb2578151610c998882610c3c565b9750610ca483610c54565b925050600181019050610c85565b5085935050505092915050565b6000604082019050610cd46000830185610b35565b8181036020830152610ce68184610c61565b90509392505050565b600080fd5b6000601f19601f8301169050919050565b7f4e487b7100000000000000000000000000000000000000000000000000000000600052604160045260246000fd5b610d3d82610cf4565b810181811067ffffffffffffffff82111715610d5c57610d5b610d05565b5b80604052505050565b6000610d6f6109d5565b9050610d7b8282610d34565b919050565b600067ffffffffffffffff821115610d9b57610d9a610d05565b5b602082029050602081019050919050565b600080fd5b600081519050610dc081610a1f565b92915050565b6000610dd9610dd484610d80565b610d65565b90508083825260208201905060208402830185811115610dfc57610dfb610dac565b5b835b81811015610e255780610e118882610db1565b845260208401935050602081019050610dfe565b5050509392505050565b600082601f830112610e4457610e43610cef565b5b8151610e54848260208601610dc6565b91505092915050565b600060208284031215610e7357610e726109df565b5b600082015167ffffffffffffffff811115610e9157610e906109e4565b5b610e9d84828501610e2f565b91505092915050565b600060a082019050610ebb6000830188610b35565b610ec86020830187610b35565b8181036040830152610eda8186610c61565b9050610ee96060830185610931565b610ef66080830184610b35565b969550505050505056fea26469706673582212204e9c70370579feb065966baa46a5995b58f8713d553ca7eb17e4a07b9bd5410864736f6c634300081b0033","opcodes":"PUSH1 0x80 PUSH1 0x40 MSTORE CALLVALUE DUP1 ISZERO PUSH2 0x10 JUMPI PUSH1 0x0 DUP1 REVERT JUMPDEST POP PUSH1 0x40 MLOAD PUSH2 0x11BD CODESIZE SUB DUP1 PUSH2 0x11BD DUP4 CODECOPY DUP2 DUP2 ADD PUSH1 0x40 MSTORE DUP2 ADD SWAP1 PUSH2 0x32 SWAP2 SWAP1 PUSH2 0x225 JUMP JUMPDEST PUSH2 0x4C PUSH8 0x3DEA0073F2DB284D PUSH1 0xC0 SHL PUSH2 0x1BF PUSH1 0x20 SHL PUSH1 0x20 SHR JUMP JUMPDEST PUSH2 0x66 PUSH8 0xB188A2999C83B13D PUSH1 0xC0 SHL PUSH2 0x1BF PUSH1 0x20 SHL PUSH1 0x20 SHR JUMP JUMPDEST DUP3 PUSH1 0x0 DUP1 PUSH2 0x100 EXP DUP2 SLOAD DUP2 PUSH20 0xFFFFFFFFFFFFFFFFFFFFFFFFFFFFFFFFFFFFFFFF MUL NOT AND SWAP1 DUP4 PUSH20 0xFFFFFFFFFFFFFFFFFFFFFFFFFFFFFFFFFFFFFFFF AND MUL OR SWAP1 SSTORE POP PUSH2 0xC0 PUSH8 0x18F7E52FDAE2188E PUSH1 0xC0 SHL PUSH2 0x1BF PUSH1 0x20 SHL PUSH1 0x20 SHR JUMP JUMPDEST CALLER PUSH1 0x1 PUSH1 0x0 PUSH2 0x100 EXP DUP2 SLOAD DUP2 PUSH20 0xFFFFFFFFFFFFFFFFFFFFFFFFFFFFFFFFFFFFFFFF MUL NOT AND SWAP1 DUP4 PUSH20 0xFFFFFFFFFFFFFFFFFFFFFFFFFFFFFFFFFFFFFFFF AND MUL OR SWAP1 SSTORE POP PUSH2 0x11B PUSH8 0xA6629CA7110F5F8C PUSH1 0xC0 SHL PUSH2 0x1BF PUSH1 0x20 SHL PUSH1 0x20 SHR JUMP JUMPDEST DUP2 PUSH1 0x2 PUSH1 0x0 PUSH2 0x100 EXP DUP2 SLOAD DUP2 PUSH20 0xFFFFFFFFFFFFFFFFFFFFFFFFFFFFFFFFFFFFFFFF MUL NOT AND SWAP1 DUP4 PUSH20 0xFFFFFFFFFFFFFFFFFFFFFFFFFFFFFFFFFFFFFFFF AND MUL OR SWAP1 SSTORE POP PUSH2 0x176 PUSH8 0x593B92450F36A82F PUSH1 0xC0 SHL PUSH2 0x1BF PUSH1 0x20 SHL PUSH1 0x20 SHR JUMP JUMPDEST DUP1 PUSH1 0x3 PUSH1 0x0 PUSH2 0x100 EXP DUP2 SLOAD DUP2 PUSH20 0xFFFFFFFFFFFFFFFFFFFFFFFFFFFFFFFFFFFFFFFF MUL NOT AND SWAP1 DUP4 PUSH20 0xFFFFFFFFFFFFFFFFFFFFFFFFFFFFFFFFFFFFFFFF AND MUL OR SWAP1 SSTORE POP POP POP POP PUSH2 0x278 JUMP JUMPDEST POP JUMP JUMPDEST PUSH1 0x0 DUP1 REVERT JUMPDEST PUSH1 0x0 PUSH20 0xFFFFFFFFFFFFFFFFFFFFFFFFFFFFFFFFFFFFFFFF DUP3 AND SWAP1 POP SWAP2 SWAP1 POP JUMP JUMPDEST PUSH1 0x0 PUSH2 0x1F2 DUP3 PUSH2 0x1C7 JUMP JUMPDEST SWAP1 POP SWAP2 SWAP1 POP JUMP JUMPDEST PUSH2 0x202 DUP2 PUSH2 0x1E7 JUMP JUMPDEST DUP2 EQ PUSH2 0x20D JUMPI PUSH1 0x0 DUP1 REVERT JUMPDEST POP JUMP JUMPDEST PUSH1 0x0 DUP2 MLOAD SWAP1 POP PUSH2 0x21F DUP2 PUSH2 0x1F9 JUMP JUMPDEST SWAP3 SWAP2 POP POP JUMP JUMPDEST PUSH1 0x0 DUP1 PUSH1 0x0 PUSH1 0x60 DUP5 DUP7 SUB SLT ISZERO PUSH2 0x23E JUMPI PUSH2 0x23D PUSH2 0x1C2 JUMP JUMPDEST JUMPDEST PUSH1 0x0 PUSH2 0x24C DUP7 DUP3 DUP8 ADD PUSH2 0x210 JUMP JUMPDEST SWAP4 POP POP PUSH1 0x20 PUSH2 0x25D DUP7 DUP3 DUP8 ADD PUSH2 0x210 JUMP JUMPDEST SWAP3 POP POP PUSH1 0x40 PUSH2 0x26E DUP7 DUP3 DUP8 ADD PUSH2 0x210 JUMP JUMPDEST SWAP2 POP POP SWAP3 POP SWAP3 POP SWAP3 JUMP JUMPDEST PUSH2 0xF36 DUP1 PUSH2 0x287 PUSH1 0x0 CODECOPY PUSH1 0x0 RETURN INVALID PUSH1 0x80 PUSH1 0x40 MSTORE CALLVALUE DUP1 ISZERO PUSH2 0x10 JUMPI PUSH1 0x0 DUP1 REVERT JUMPDEST POP PUSH1 0x4 CALLDATASIZE LT PUSH2 0x62 JUMPI PUSH1 0x0 CALLDATALOAD PUSH1 0xE0 SHR DUP1 PUSH4 0x4B57B0BE EQ PUSH2 0x67 JUMPI DUP1 PUSH4 0x735DE9F7 EQ PUSH2 0x85 JUMPI DUP1 PUSH4 0x8DA5CB5B EQ PUSH2 0xA3 JUMPI DUP1 PUSH4 0x95CCEA67 EQ PUSH2 0xC1 JUMPI DUP1 PUSH4 0xBE22F546 EQ PUSH2 0xDD JUMPI DUP1 PUSH4 0xF7C7724F EQ PUSH2 0xFB JUMPI JUMPDEST PUSH1 0x0 DUP1 REVERT JUMPDEST PUSH2 0x6F PUSH2 0x117 JUMP JUMPDEST PUSH1 0x40 MLOAD PUSH2 0x7C SWAP2 SWAP1 PUSH2 0x940 JUMP JUMPDEST PUSH1 0x40 MLOAD DUP1 SWAP2 SUB SWAP1 RETURN JUMPDEST PUSH2 0x8D PUSH2 0x13D JUMP JUMPDEST PUSH1 0x40 MLOAD PUSH2 0x9A SWAP2 SWAP1 PUSH2 0x9BA JUMP JUMPDEST PUSH1 0x40 MLOAD DUP1 SWAP2 SUB SWAP1 RETURN JUMPDEST PUSH2 0xAB PUSH2 0x161 JUMP JUMPDEST PUSH1 0x40 MLOAD PUSH2 0xB8 SWAP2 SWAP1 PUSH2 0x940 JUMP JUMPDEST PUSH1 0x40 MLOAD DUP1 SWAP2 SUB SWAP1 RETURN JUMPDEST PUSH2 0xDB PUSH1 0x4 DUP1 CALLDATASIZE SUB DUP2 ADD SWAP1 PUSH2 0xD6 SWAP2 SWAP1 PUSH2 0xA4B JUMP JUMPDEST PUSH2 0x187 JUMP JUMPDEST STOP JUMPDEST PUSH2 0xE5 PUSH2 0x398 JUMP JUMPDEST PUSH1 0x40 MLOAD PUSH2 0xF2 SWAP2 SWAP1 PUSH2 0x940 JUMP JUMPDEST PUSH1 0x40 MLOAD DUP1 SWAP2 SUB SWAP1 RETURN JUMPDEST PUSH2 0x115 PUSH1 0x4 DUP1 CALLDATASIZE SUB DUP2 ADD SWAP1 PUSH2 0x110 SWAP2 SWAP1 PUSH2 0xA8B JUMP JUMPDEST PUSH2 0x3BE JUMP JUMPDEST STOP JUMPDEST PUSH1 0x3 PUSH1 0x0 SWAP1 SLOAD SWAP1 PUSH2 0x100 EXP SWAP1 DIV PUSH20 0xFFFFFFFFFFFFFFFFFFFFFFFFFFFFFFFFFFFFFFFF AND DUP2 JUMP JUMPDEST PUSH1 0x0 DUP1 SLOAD SWAP1 PUSH2 0x100 EXP SWAP1 DIV PUSH20 0xFFFFFFFFFFFFFFFFFFFFFFFFFFFFFFFFFFFFFFFF AND DUP2 JUMP JUMPDEST PUSH1 0x1 PUSH1 0x0 SWAP1 SLOAD SWAP1 PUSH2 0x100 EXP SWAP1 DIV PUSH20 0xFFFFFFFFFFFFFFFFFFFFFFFFFFFFFFFFFFFFFFFF AND DUP2 JUMP JUMPDEST PUSH2 0x19B PUSH8 0xF85D1C51ED112676 PUSH1 0xC0 SHL PUSH2 0x8B7 JUMP JUMPDEST PUSH2 0x1AF PUSH8 0x3CA0DB0265A105B0 PUSH1 0xC0 SHL PUSH2 0x8B7 JUMP JUMPDEST PUSH2 0x1C3 PUSH8 0xF7A4C11E486FF47C PUSH1 0xC0 SHL PUSH2 0x8B7 JUMP JUMPDEST PUSH2 0x1D7 PUSH8 0xCB30F5976C9CEBC7 PUSH1 0xC0 SHL PUSH2 0x8B7 JUMP JUMPDEST PUSH2 0x1EB PUSH8 0x32292115E572337 PUSH1 0xC0 SHL PUSH2 0x8B7 JUMP JUMPDEST PUSH1 0x1 PUSH1 0x0 SWAP1 SLOAD SWAP1 PUSH2 0x100 EXP SWAP1 DIV PUSH20 0xFFFFFFFFFFFFFFFFFFFFFFFFFFFFFFFFFFFFFFFF AND PUSH20 0xFFFFFFFFFFFFFFFFFFFFFFFFFFFFFFFFFFFFFFFF AND CALLER PUSH20 0xFFFFFFFFFFFFFFFFFFFFFFFFFFFFFFFFFFFFFFFF AND EQ PUSH2 0x27B JUMPI PUSH1 0x40 MLOAD PUSH32 0x8C379A000000000000000000000000000000000000000000000000000000000 DUP2 MSTORE PUSH1 0x4 ADD PUSH2 0x272 SWAP1 PUSH2 0xB15 JUMP JUMPDEST PUSH1 0x40 MLOAD DUP1 SWAP2 SUB SWAP1 REVERT JUMPDEST PUSH2 0x28F PUSH8 0xA65EA24D70524589 PUSH1 0xC0 SHL PUSH2 0x8B7 JUMP JUMPDEST PUSH2 0x2A3 PUSH8 0x1EA80D8B306ACF05 PUSH1 0xC0 SHL PUSH2 0x8B7 JUMP JUMPDEST PUSH2 0x2B7 PUSH8 0x7B9EDF65493D08A2 PUSH1 0xC0 SHL PUSH2 0x8B7 JUMP JUMPDEST PUSH2 0x2CB PUSH8 0xD6F13DE8E6D6A872 PUSH1 0xC0 SHL PUSH2 0x8B7 JUMP JUMPDEST PUSH2 0x2DF PUSH8 0x2FA6A708C8B4FDA7 PUSH1 0xC0 SHL PUSH2 0x8B7 JUMP JUMPDEST PUSH2 0x2F3 PUSH8 0x4DBD4A9BA61423EF PUSH1 0xC0 SHL PUSH2 0x8B7 JUMP JUMPDEST DUP2 PUSH20 0xFFFFFFFFFFFFFFFFFFFFFFFFFFFFFFFFFFFFFFFF AND PUSH4 0xA9059CBB PUSH1 0x1 PUSH1 0x0 SWAP1 SLOAD SWAP1 PUSH2 0x100 EXP SWAP1 DIV PUSH20 0xFFFFFFFFFFFFFFFFFFFFFFFFFFFFFFFFFFFFFFFF AND DUP4 PUSH1 0x40 MLOAD DUP4 PUSH4 0xFFFFFFFF AND PUSH1 0xE0 SHL DUP2 MSTORE PUSH1 0x4 ADD PUSH2 0x350 SWAP3 SWAP2 SWAP1 PUSH2 0xB44 JUMP JUMPDEST PUSH1 0x20 PUSH1 0x40 MLOAD DUP1 DUP4 SUB DUP2 PUSH1 0x0 DUP8 GAS CALL ISZERO DUP1 ISZERO PUSH2 0x36F JUMPI RETURNDATASIZE PUSH1 0x0 DUP1 RETURNDATACOPY RETURNDATASIZE PUSH1 0x0 REVERT JUMPDEST POP POP POP POP PUSH1 0x40 MLOAD RETURNDATASIZE PUSH1 0x1F NOT PUSH1 0x1F DUP3 ADD AND DUP3 ADD DUP1 PUSH1 0x40 MSTORE POP DUP2 ADD SWAP1 PUSH2 0x393 SWAP2 SWAP1 PUSH2 0xBA5 JUMP JUMPDEST POP POP POP JUMP JUMPDEST PUSH1 0x2 PUSH1 0x0 SWAP1 SLOAD SWAP1 PUSH2 0x100 EXP SWAP1 DIV PUSH20 0xFFFFFFFFFFFFFFFFFFFFFFFFFFFFFFFFFFFFFFFF AND DUP2 JUMP JUMPDEST PUSH2 0x3D2 PUSH8 0x73AD0DDD5DE400AF PUSH1 0xC0 SHL PUSH2 0x8B7 JUMP JUMPDEST PUSH2 0x3E6 PUSH8 0x3CA0DB0265A105B0 PUSH1 0xC0 SHL PUSH2 0x8B7 JUMP JUMPDEST PUSH2 0x3FA PUSH8 0xF7A4C11E486FF47C PUSH1 0xC0 SHL PUSH2 0x8B7 JUMP JUMPDEST PUSH2 0x40E PUSH8 0xCB30F5976C9CEBC7 PUSH1 0xC0 SHL PUSH2 0x8B7 JUMP JUMPDEST PUSH2 0x422 PUSH8 0x32292115E572337 PUSH1 0xC0 SHL PUSH2 0x8B7 JUMP JUMPDEST PUSH1 0x1 PUSH1 0x0 SWAP1 SLOAD SWAP1 PUSH2 0x100 EXP SWAP1 DIV PUSH20 0xFFFFFFFFFFFFFFFFFFFFFFFFFFFFFFFFFFFFFFFF AND PUSH20 0xFFFFFFFFFFFFFFFFFFFFFFFFFFFFFFFFFFFFFFFF AND CALLER PUSH20 0xFFFFFFFFFFFFFFFFFFFFFFFFFFFFFFFFFFFFFFFF AND EQ PUSH2 0x4B2 JUMPI PUSH1 0x40 MLOAD PUSH32 0x8C379A000000000000000000000000000000000000000000000000000000000 DUP2 MSTORE PUSH1 0x4 ADD PUSH2 0x4A9 SWAP1 PUSH2 0xB15 JUMP JUMPDEST PUSH1 0x40 MLOAD DUP1 SWAP2 SUB SWAP1 REVERT JUMPDEST PUSH2 0x4C6 PUSH8 0xA65EA24D70524589 PUSH1 0xC0 SHL PUSH2 0x8B7 JUMP JUMPDEST PUSH2 0x4DA PUSH8 0x1EA80D8B306ACF05 PUSH1 0xC0 SHL PUSH2 0x8B7 JUMP JUMPDEST PUSH2 0x4EE PUSH8 0xD7C96055103A052A PUSH1 0xC0 SHL PUSH2 0x8B7 JUMP JUMPDEST PUSH2 0x502 PUSH8 0xA489DEE3524D877A PUSH1 0xC0 SHL PUSH2 0x8B7 JUMP JUMPDEST PUSH2 0x516 PUSH8 0x5AC7AB736BC26CBF PUSH1 0xC0 SHL PUSH2 0x8B7 JUMP JUMPDEST PUSH2 0x52A PUSH8 0x4D9029FA2685FDCC PUSH1 0xC0 SHL PUSH2 0x8B7 JUMP JUMPDEST PUSH1 0x60 PUSH2 0x540 PUSH8 0xFB0A7A03BAAD1C63 PUSH1 0xC0 SHL PUSH2 0x8B7 JUMP JUMPDEST PUSH1 0x2 PUSH1 0x0 SWAP1 SLOAD SWAP1 PUSH2 0x100 EXP SWAP1 DIV PUSH20 0xFFFFFFFFFFFFFFFFFFFFFFFFFFFFFFFFFFFFFFFF AND DUP2 PUSH1 0x0 DUP2 MLOAD DUP2 LT PUSH2 0x577 JUMPI PUSH2 0x576 PUSH2 0xBD2 JUMP JUMPDEST JUMPDEST PUSH1 0x20 MUL PUSH1 0x20 ADD ADD SWAP1 PUSH20 0xFFFFFFFFFFFFFFFFFFFFFFFFFFFFFFFFFFFFFFFF AND SWAP1 DUP2 PUSH20 0xFFFFFFFFFFFFFFFFFFFFFFFFFFFFFFFFFFFFFFFF AND DUP2 MSTORE POP POP PUSH2 0x5C5 PUSH8 0x5F28C879F3248CDC PUSH1 0xC0 SHL PUSH2 0x8B7 JUMP JUMPDEST PUSH1 0x3 PUSH1 0x0 SWAP1 SLOAD SWAP1 PUSH2 0x100 EXP SWAP1 DIV PUSH20 0xFFFFFFFFFFFFFFFFFFFFFFFFFFFFFFFFFFFFFFFF AND DUP2 PUSH1 0x1 DUP2 MLOAD DUP2 LT PUSH2 0x5FC JUMPI PUSH2 0x5FB PUSH2 0xBD2 JUMP JUMPDEST JUMPDEST PUSH1 0x20 MUL PUSH1 0x20 ADD ADD SWAP1 PUSH20 0xFFFFFFFFFFFFFFFFFFFFFFFFFFFFFFFFFFFFFFFF AND SWAP1 DUP2 PUSH20 0xFFFFFFFFFFFFFFFFFFFFFFFFFFFFFFFFFFFFFFFF AND DUP2 MSTORE POP POP PUSH2 0x64A PUSH8 0xD9E44E8830A6F9A3 PUSH1 0xC0 SHL PUSH2 0x8B7 JUMP JUMPDEST PUSH2 0x65E PUSH8 0xA9EA9E54D26E3596 PUSH1 0xC0 SHL PUSH2 0x8B7 JUMP JUMPDEST PUSH1 0x0 DUP1 PUSH1 0x0 SWAP1 SLOAD SWAP1 PUSH2 0x100 EXP SWAP1 DIV PUSH20 0xFFFFFFFFFFFFFFFFFFFFFFFFFFFFFFFFFFFFFFFF AND PUSH20 0xFFFFFFFFFFFFFFFFFFFFFFFFFFFFFFFFFFFFFFFF AND PUSH4 0xD06CA61F DUP5 DUP5 PUSH1 0x40 MLOAD DUP4 PUSH4 0xFFFFFFFF AND PUSH1 0xE0 SHL DUP2 MSTORE PUSH1 0x4 ADD PUSH2 0x6BC SWAP3 SWAP2 SWAP1 PUSH2 0xCBF JUMP JUMPDEST PUSH1 0x0 PUSH1 0x40 MLOAD DUP1 DUP4 SUB DUP2 DUP7 GAS STATICCALL ISZERO DUP1 ISZERO PUSH2 0x6D9 JUMPI RETURNDATASIZE PUSH1 0x0 DUP1 RETURNDATACOPY RETURNDATASIZE PUSH1 0x0 REVERT JUMPDEST POP POP POP POP PUSH1 0x40 MLOAD RETURNDATASIZE PUSH1 0x0 DUP3 RETURNDATACOPY RETURNDATASIZE PUSH1 0x1F NOT PUSH1 0x1F DUP3 ADD AND DUP3 ADD DUP1 PUSH1 0x40 MSTORE POP DUP2 ADD SWAP1 PUSH2 0x702 SWAP2 SWAP1 PUSH2 0xE5D JUMP JUMPDEST SWAP1 POP PUSH2 0x718 PUSH8 0xF1217E974DB11321 PUSH1 0xC0 SHL PUSH2 0x8B7 JUMP JUMPDEST PUSH2 0x72C PUSH8 0x4E4DDE7252458787 PUSH1 0xC0 SHL PUSH2 0x8B7 JUMP JUMPDEST PUSH1 0x0 DUP2 PUSH1 0x1 DUP2 MLOAD DUP2 LT PUSH2 0x742 JUMPI PUSH2 0x741 PUSH2 0xBD2 JUMP JUMPDEST JUMPDEST PUSH1 0x20 MUL PUSH1 0x20 ADD ADD MLOAD SWAP1 POP PUSH2 0x760 PUSH8 0xBB68E042A2B5E0A7 PUSH1 0xC0 SHL PUSH2 0x8B7 JUMP JUMPDEST PUSH2 0x774 PUSH8 0x58276F14FD3EF655 PUSH1 0xC0 SHL PUSH2 0x8B7 JUMP JUMPDEST PUSH1 0x0 PUSH2 0x77E PUSH2 0x8BA JUMP JUMPDEST SWAP1 POP PUSH2 0x794 PUSH8 0x4AFAB66DD503E2B4 PUSH1 0xC0 SHL PUSH2 0x8B7 JUMP JUMPDEST PUSH2 0x7A8 PUSH8 0x166B6C65E50D816 PUSH1 0xC0 SHL PUSH2 0x8B7 JUMP JUMPDEST DUP1 DUP3 GT ISZERO PUSH2 0x89B JUMPI PUSH2 0x7C4 PUSH8 0xCB869FC9C0DE84DE PUSH1 0xC0 SHL PUSH2 0x8B7 JUMP JUMPDEST PUSH2 0x7D8 PUSH8 0xB8DB6DC91947D01B PUSH1 0xC0 SHL PUSH2 0x8B7 JUMP JUMPDEST PUSH2 0x7EC PUSH8 0x79A92DBDA6A0AA4A PUSH1 0xC0 SHL PUSH2 0x8B7 JUMP JUMPDEST PUSH1 0x0 DUP1 SLOAD SWAP1 PUSH2 0x100 EXP SWAP1 DIV PUSH20 0xFFFFFFFFFFFFFFFFFFFFFFFFFFFFFFFFFFFFFFFF AND PUSH20 0xFFFFFFFFFFFFFFFFFFFFFFFFFFFFFFFFFFFFFFFF AND PUSH4 0x38ED1739 DUP7 DUP5 DUP8 ADDRESS TIMESTAMP PUSH1 0x40 MLOAD DUP7 PUSH4 0xFFFFFFFF AND PUSH1 0xE0 SHL DUP2 MSTORE PUSH1 0x4 ADD PUSH2 0x84D SWAP6 SWAP5 SWAP4 SWAP3 SWAP2 SWAP1 PUSH2 0xEA6 JUMP JUMPDEST PUSH1 0x0 PUSH1 0x40 MLOAD DUP1 DUP4 SUB DUP2 PUSH1 0x0 DUP8 GAS CALL ISZERO DUP1 ISZERO PUSH2 0x86C JUMPI RETURNDATASIZE PUSH1 0x0 DUP1 RETURNDATACOPY RETURNDATASIZE PUSH1 0x0 REVERT JUMPDEST POP POP POP POP PUSH1 0x40 MLOAD RETURNDATASIZE PUSH1 0x0 DUP3 RETURNDATACOPY RETURNDATASIZE PUSH1 0x1F NOT PUSH1 0x1F DUP3 ADD AND DUP3 ADD DUP1 PUSH1 0x40 MSTORE POP DUP2 ADD SWAP1 PUSH2 0x895 SWAP2 SWAP1 PUSH2 0xE5D JUMP JUMPDEST POP PUSH2 0x8B0 JUMP JUMPDEST PUSH2 0x8AF PUSH8 0x34AE4DA4FF0C055B PUSH1 0xC0 SHL PUSH2 0x8B7 JUMP JUMPDEST JUMPDEST POP POP POP POP POP JUMP JUMPDEST POP JUMP JUMPDEST PUSH1 0x0 PUSH2 0x8D0 PUSH8 0x4D4A56A2BFDDCFA8 PUSH1 0xC0 SHL PUSH2 0x8B7 JUMP JUMPDEST PUSH2 0x8E4 PUSH8 0xD5657F6449DDA43A PUSH1 0xC0 SHL PUSH2 0x8B7 JUMP JUMPDEST PUSH2 0x8F8 PUSH8 0x795F17CB564DB22D PUSH1 0xC0 SHL PUSH2 0x8B7 JUMP JUMPDEST PUSH1 0x0 SWAP1 POP SWAP1 JUMP JUMPDEST PUSH1 0x0 PUSH20 0xFFFFFFFFFFFFFFFFFFFFFFFFFFFFFFFFFFFFFFFF DUP3 AND SWAP1 POP SWAP2 SWAP1 POP JUMP JUMPDEST PUSH1 0x0 PUSH2 0x92A DUP3 PUSH2 0x8FF JUMP JUMPDEST SWAP1 POP SWAP2 SWAP1 POP JUMP JUMPDEST PUSH2 0x93A DUP2 PUSH2 0x91F JUMP JUMPDEST DUP3 MSTORE POP POP JUMP JUMPDEST PUSH1 0x0 PUSH1 0x20 DUP3 ADD SWAP1 POP PUSH2 0x955 PUSH1 0x0 DUP4 ADD DUP5 PUSH2 0x931 JUMP JUMPDEST SWAP3 SWAP2 POP POP JUMP JUMPDEST PUSH1 0x0 DUP2 SWAP1 POP SWAP2 SWAP1 POP JUMP JUMPDEST PUSH1 0x0 PUSH2 0x980 PUSH2 0x97B PUSH2 0x976 DUP5 PUSH2 0x8FF JUMP JUMPDEST PUSH2 0x95B JUMP JUMPDEST PUSH2 0x8FF JUMP JUMPDEST SWAP1 POP SWAP2 SWAP1 POP JUMP JUMPDEST PUSH1 0x0 PUSH2 0x992 DUP3 PUSH2 0x965 JUMP JUMPDEST SWAP1 POP SWAP2 SWAP1 POP JUMP JUMPDEST PUSH1 0x0 PUSH2 0x9A4 DUP3 PUSH2 0x987 JUMP JUMPDEST SWAP1 POP SWAP2 SWAP1 POP JUMP JUMPDEST PUSH2 0x9B4 DUP2 PUSH2 0x999 JUMP JUMPDEST DUP3 MSTORE POP POP JUMP JUMPDEST PUSH1 0x0 PUSH1 0x20 DUP3 ADD SWAP1 POP PUSH2 0x9CF PUSH1 0x0 DUP4 ADD DUP5 PUSH2 0x9AB JUMP JUMPDEST SWAP3 SWAP2 POP POP JUMP JUMPDEST PUSH1 0x0 PUSH1 0x40 MLOAD SWAP1 POP SWAP1 JUMP JUMPDEST PUSH1 0x0 DUP1 REVERT JUMPDEST PUSH1 0x0 DUP1 REVERT JUMPDEST PUSH2 0x9F2 DUP2 PUSH2 0x91F JUMP JUMPDEST DUP2 EQ PUSH2 0x9FD JUMPI PUSH1 0x0 DUP1 REVERT JUMPDEST POP JUMP JUMPDEST PUSH1 0x0 DUP2 CALLDATALOAD SWAP1 POP PUSH2 0xA0F DUP2 PUSH2 0x9E9 JUMP JUMPDEST SWAP3 SWAP2 POP POP JUMP JUMPDEST PUSH1 0x0 DUP2 SWAP1 POP SWAP2 SWAP1 POP JUMP JUMPDEST PUSH2 0xA28 DUP2 PUSH2 0xA15 JUMP JUMPDEST DUP2 EQ PUSH2 0xA33 JUMPI PUSH1 0x0 DUP1 REVERT JUMPDEST POP JUMP JUMPDEST PUSH1 0x0 DUP2 CALLDATALOAD SWAP1 POP PUSH2 0xA45 DUP2 PUSH2 0xA1F JUMP JUMPDEST SWAP3 SWAP2 POP POP JUMP JUMPDEST PUSH1 0x0 DUP1 PUSH1 0x40 DUP4 DUP6 SUB SLT ISZERO PUSH2 0xA62 JUMPI PUSH2 0xA61 PUSH2 0x9DF JUMP JUMPDEST JUMPDEST PUSH1 0x0 PUSH2 0xA70 DUP6 DUP3 DUP7 ADD PUSH2 0xA00 JUMP JUMPDEST SWAP3 POP POP PUSH1 0x20 PUSH2 0xA81 DUP6 DUP3 DUP7 ADD PUSH2 0xA36 JUMP JUMPDEST SWAP2 POP POP SWAP3 POP SWAP3 SWAP1 POP JUMP JUMPDEST PUSH1 0x0 PUSH1 0x20 DUP3 DUP5 SUB SLT ISZERO PUSH2 0xAA1 JUMPI PUSH2 0xAA0 PUSH2 0x9DF JUMP JUMPDEST JUMPDEST PUSH1 0x0 PUSH2 0xAAF DUP5 DUP3 DUP6 ADD PUSH2 0xA36 JUMP JUMPDEST SWAP2 POP POP SWAP3 SWAP2 POP POP JUMP JUMPDEST PUSH1 0x0 DUP3 DUP3 MSTORE PUSH1 0x20 DUP3 ADD SWAP1 POP SWAP3 SWAP2 POP POP JUMP JUMPDEST PUSH32 0x4E6F742074686520636F6E7472616374206F776E657200000000000000000000 PUSH1 0x0 DUP3 ADD MSTORE POP JUMP JUMPDEST PUSH1 0x0 PUSH2 0xAFF PUSH1 0x16 DUP4 PUSH2 0xAB8 JUMP JUMPDEST SWAP2 POP PUSH2 0xB0A DUP3 PUSH2 0xAC9 JUMP JUMPDEST PUSH1 0x20 DUP3 ADD SWAP1 POP SWAP2 SWAP1 POP JUMP JUMPDEST PUSH1 0x0 PUSH1 0x20 DUP3 ADD SWAP1 POP DUP2 DUP2 SUB PUSH1 0x0 DUP4 ADD MSTORE PUSH2 0xB2E DUP2 PUSH2 0xAF2 JUMP JUMPDEST SWAP1 POP SWAP2 SWAP1 POP JUMP JUMPDEST PUSH2 0xB3E DUP2 PUSH2 0xA15 JUMP JUMPDEST DUP3 MSTORE POP POP JUMP JUMPDEST PUSH1 0x0 PUSH1 0x40 DUP3 ADD SWAP1 POP PUSH2 0xB59 PUSH1 0x0 DUP4 ADD DUP6 PUSH2 0x931 JUMP JUMPDEST PUSH2 0xB66 PUSH1 0x20 DUP4 ADD DUP5 PUSH2 0xB35 JUMP JUMPDEST SWAP4 SWAP3 POP POP POP JUMP JUMPDEST PUSH1 0x0 DUP2 ISZERO ISZERO SWAP1 POP SWAP2 SWAP1 POP JUMP JUMPDEST PUSH2 0xB82 DUP2 PUSH2 0xB6D JUMP JUMPDEST DUP2 EQ PUSH2 0xB8D JUMPI PUSH1 0x0 DUP1 REVERT JUMPDEST POP JUMP JUMPDEST PUSH1 0x0 DUP2 MLOAD SWAP1 POP PUSH2 0xB9F DUP2 PUSH2 0xB79 JUMP JUMPDEST SWAP3 SWAP2 POP POP JUMP JUMPDEST PUSH1 0x0 PUSH1 0x20 DUP3 DUP5 SUB SLT ISZERO PUSH2 0xBBB JUMPI PUSH2 0xBBA PUSH2 0x9DF JUMP JUMPDEST JUMPDEST PUSH1 0x0 PUSH2 0xBC9 DUP5 DUP3 DUP6 ADD PUSH2 0xB90 JUMP JUMPDEST SWAP2 POP POP SWAP3 SWAP2 POP POP JUMP JUMPDEST PUSH32 0x4E487B7100000000000000000000000000000000000000000000000000000000 PUSH1 0x0 MSTORE PUSH1 0x32 PUSH1 0x4 MSTORE PUSH1 0x24 PUSH1 0x0 REVERT JUMPDEST PUSH1 0x0 DUP2 MLOAD SWAP1 POP SWAP2 SWAP1 POP JUMP JUMPDEST PUSH1 0x0 DUP3 DUP3 MSTORE PUSH1 0x20 DUP3 ADD SWAP1 POP SWAP3 SWAP2 POP POP JUMP JUMPDEST PUSH1 0x0 DUP2 SWAP1 POP PUSH1 0x20 DUP3 ADD SWAP1 POP SWAP2 SWAP1 POP JUMP JUMPDEST PUSH2 0xC36 DUP2 PUSH2 0x91F JUMP JUMPDEST DUP3 MSTORE POP POP JUMP JUMPDEST PUSH1 0x0 PUSH2 0xC48 DUP4 DUP4 PUSH2 0xC2D JUMP JUMPDEST PUSH1 0x20 DUP4 ADD SWAP1 POP SWAP3 SWAP2 POP POP JUMP JUMPDEST PUSH1 0x0 PUSH1 0x20 DUP3 ADD SWAP1 POP SWAP2 SWAP1 POP JUMP JUMPDEST PUSH1 0x0 PUSH2 0xC6C DUP3 PUSH2 0xC01 JUMP JUMPDEST PUSH2 0xC76 DUP2 DUP6 PUSH2 0xC0C JUMP JUMPDEST SWAP4 POP PUSH2 0xC81 DUP4 PUSH2 0xC1D JUMP JUMPDEST DUP1 PUSH1 0x0 JUMPDEST DUP4 DUP2 LT ISZERO PUSH2 0xCB2 JUMPI DUP2 MLOAD PUSH2 0xC99 DUP9 DUP3 PUSH2 0xC3C JUMP JUMPDEST SWAP8 POP PUSH2 0xCA4 DUP4 PUSH2 0xC54 JUMP JUMPDEST SWAP3 POP POP PUSH1 0x1 DUP2 ADD SWAP1 POP PUSH2 0xC85 JUMP JUMPDEST POP DUP6 SWAP4 POP POP POP POP SWAP3 SWAP2 POP POP JUMP JUMPDEST PUSH1 0x0 PUSH1 0x40 DUP3 ADD SWAP1 POP PUSH2 0xCD4 PUSH1 0x0 DUP4 ADD DUP6 PUSH2 0xB35 JUMP JUMPDEST DUP2 DUP2 SUB PUSH1 0x20 DUP4 ADD MSTORE PUSH2 0xCE6 DUP2 DUP5 PUSH2 0xC61 JUMP JUMPDEST SWAP1 POP SWAP4 SWAP3 POP POP POP JUMP JUMPDEST PUSH1 0x0 DUP1 REVERT JUMPDEST PUSH1 0x0 PUSH1 0x1F NOT PUSH1 0x1F DUP4 ADD AND SWAP1 POP SWAP2 SWAP1 POP JUMP JUMPDEST PUSH32 0x4E487B7100000000000000000000000000000000000000000000000000000000 PUSH1 0x0 MSTORE PUSH1 0x41 PUSH1 0x4 MSTORE PUSH1 0x24 PUSH1 0x0 REVERT JUMPDEST PUSH2 0xD3D DUP3 PUSH2 0xCF4 JUMP JUMPDEST DUP2 ADD DUP2 DUP2 LT PUSH8 0xFFFFFFFFFFFFFFFF DUP3 GT OR ISZERO PUSH2 0xD5C JUMPI PUSH2 0xD5B PUSH2 0xD05 JUMP JUMPDEST JUMPDEST DUP1 PUSH1 0x40 MSTORE POP POP POP JUMP JUMPDEST PUSH1 0x0 PUSH2 0xD6F PUSH2 0x9D5 JUMP JUMPDEST SWAP1 POP PUSH2 0xD7B DUP3 DUP3 PUSH2 0xD34 JUMP JUMPDEST SWAP2 SWAP1 POP JUMP JUMPDEST PUSH1 0x0 PUSH8 0xFFFFFFFFFFFFFFFF DUP3 GT ISZERO PUSH2 0xD9B JUMPI PUSH2 0xD9A PUSH2 0xD05 JUMP JUMPDEST JUMPDEST PUSH1 0x20 DUP3 MUL SWAP1 POP PUSH1 0x20 DUP2 ADD SWAP1 POP SWAP2 SWAP1 POP JUMP JUMPDEST PUSH1 0x0 DUP1 REVERT JUMPDEST PUSH1 0x0 DUP2 MLOAD SWAP1 POP PUSH2 0xDC0 DUP2 PUSH2 0xA1F JUMP JUMPDEST SWAP3 SWAP2 POP POP JUMP JUMPDEST PUSH1 0x0 PUSH2 0xDD9 PUSH2 0xDD4 DUP5 PUSH2 0xD80 JUMP JUMPDEST PUSH2 0xD65 JUMP JUMPDEST SWAP1 POP DUP1 DUP4 DUP3 MSTORE PUSH1 0x20 DUP3 ADD SWAP1 POP PUSH1 0x20 DUP5 MUL DUP4 ADD DUP6 DUP2 GT ISZERO PUSH2 0xDFC JUMPI PUSH2 0xDFB PUSH2 0xDAC JUMP JUMPDEST JUMPDEST DUP4 JUMPDEST DUP2 DUP2 LT ISZERO PUSH2 0xE25 JUMPI DUP1 PUSH2 0xE11 DUP9 DUP3 PUSH2 0xDB1 JUMP JUMPDEST DUP5 MSTORE PUSH1 0x20 DUP5 ADD SWAP4 POP POP PUSH1 0x20 DUP2 ADD SWAP1 POP PUSH2 0xDFE JUMP JUMPDEST POP POP POP SWAP4 SWAP3 POP POP POP JUMP JUMPDEST PUSH1 0x0 DUP3 PUSH1 0x1F DUP4 ADD SLT PUSH2 0xE44 JUMPI PUSH2 0xE43 PUSH2 0xCEF JUMP JUMPDEST JUMPDEST DUP2 MLOAD PUSH2 0xE54 DUP5 DUP3 PUSH1 0x20 DUP7 ADD PUSH2 0xDC6 JUMP JUMPDEST SWAP2 POP POP SWAP3 SWAP2 POP POP JUMP JUMPDEST PUSH1 0x0 PUSH1 0x20 DUP3 DUP5 SUB SLT ISZERO PUSH2 0xE73 JUMPI PUSH2 0xE72 PUSH2 0x9DF JUMP JUMPDEST JUMPDEST PUSH1 0x0 DUP3 ADD MLOAD PUSH8 0xFFFFFFFFFFFFFFFF DUP2 GT ISZERO PUSH2 0xE91 JUMPI PUSH2 0xE90 PUSH2 0x9E4 JUMP JUMPDEST JUMPDEST PUSH2 0xE9D DUP5 DUP3 DUP6 ADD PUSH2 0xE2F JUMP JUMPDEST SWAP2 POP POP SWAP3 SWAP2 POP POP JUMP JUMPDEST PUSH1 0x0 PUSH1 0xA0 DUP3 ADD SWAP1 POP PUSH2 0xEBB PUSH1 0x0 DUP4 ADD DUP9 PUSH2 0xB35 JUMP JUMPDEST PUSH2 0xEC8 PUSH1 0x20 DUP4 ADD DUP8 PUSH2 0xB35 JUMP JUMPDEST DUP2 DUP2 SUB PUSH1 0x40 DUP4 ADD MSTORE PUSH2 0xEDA DUP2 DUP7 PUSH2 0xC61 JUMP JUMPDEST SWAP1 POP PUSH2 0xEE9 PUSH1 0x60 DUP4 ADD DUP6 PUSH2 0x931 JUMP JUMPDEST PUSH2 0xEF6 PUSH1 0x80 DUP4 ADD DUP5 PUSH2 0xB35 JUMP JUMPDEST SWAP7 SWAP6 POP POP POP POP POP POP JUMP INVALID LOG2 PUSH5 0x6970667358 0x22 SLT KECCAK256 0x4E SWAP13 PUSH17 0x370579FEB065966BAA46A5995B58F8713D SSTORE EXTCODECOPY 0xA7 0xEB OR 0xE4 LOG0 PUSH28 0x9BD5410864736F6C634300081B003300000000000000000000000000 "},"methodIdentifiers":{"daiToken()":"be22f546","emergencyWithdraw(address,uint256)":"95ccea67","executeArbitrage(uint256)":"f7c7724f","owner()":"8da5cb5b","uniswapRouter()":"735de9f7","wethToken()":"4b57b0be"}}}}}