{"contracts/MockUniswapRouter.sol":{"MockUniswapRouter":{"abi":[{"inputs":[{"internalType":"address","name":"weth","type":"address"},{"internalType":"address","name":"dai","type":"address"},{"internalType":"uint256","name":"initalExchagneRate","type":"uint256"}],"stateMutability":"nonpayable","type":"constructor"},{"inputs":[],"name":"DAI","outputs":[{"internalType":"address","name":"","type":"address"}],"stateMutability":"view","type":"function"},{"inputs":[],"name":"WETH","outputs":[{"internalType":"address","name":"","type":"address"}],"stateMutability":"view","type":"function"},{"inputs":[],"name":"exchangeRate","outputs":[{"internalType":"uint256","name":"","type":"uint256"}],"stateMutability":"view","type":"function"},{"inputs":[{"internalType":"uint256","name":"amountIn","type":"uint256"},{"internalType":"address[]","name":"path","type":"address[]"}],"name":"getAmountsOut","outputs":[{"internalType":"uint256[]","name":"amounts","type":"uint256[]"}],"stateMutability":"pure","type":"function"},{"inputs":[{"internalType":"uint256","name":"initalExchagneRate","type":"uint256"}],"name":"setExchangeRate","outputs":[],"stateMutability":"nonpayable","type":"function"},{"inputs":[{"internalType":"uint256","name":"amountIn","type":"uint256"},{"internalType":"uint256","name":"amountOutMin","type":"uint256"},{"internalType":"address[]","name":"path","type":"address[]"},{"internalType":"address","name":"to","type":"address"},{"internalType":"uint256","name":"deadline","type":"uint256"}],"name":"swapExactTokensForTokens","outputs":[{"internalType":"uint256[]","name":"amounts","type":"uint256[]"}],"stateMutability":"nonpayable","type":"function"}],"evm":{"bytecode":{"linkReferences":{},"object":"608060405234801561001057600080fd5b5060405161129c38038061129c833981810160405281019061003291906101c6565b61004c67c474a50d5e70350d60c01b61012a60201b60201c565b61006667b43f64e05d8868ba60c01b61012a60201b60201c565b826000806101000a81548173ffffffffffffffffffffffffffffffffffffffff021916908373ffffffffffffffffffffffffffffffffffffffff1602179055506100c0679b66bab474b237d560c01b61012a60201b60201c565b81600160006101000a81548173ffffffffffffffffffffffffffffffffffffffff021916908373ffffffffffffffffffffffffffffffffffffffff16021790555061011b67dbf426c08248a77360c01b61012a60201b60201c565b80600281905550505050610219565b50565b600080fd5b600073ffffffffffffffffffffffffffffffffffffffff82169050919050565b600061015d82610132565b9050919050565b61016d81610152565b811461017857600080fd5b50565b60008151905061018a81610164565b92915050565b6000819050919050565b6101a381610190565b81146101ae57600080fd5b50565b6000815190506101c08161019a565b92915050565b6000806000606084860312156101df576101de61012d565b5b60006101ed8682870161017b565b93505060206101fe8682870161017b565b925050604061020f868287016101b1565b9150509250925092565b611074806102286000396000f3fe608060405234801561001057600080fd5b50600436106100625760003560e01c806338ed1739146100675780633ba0b9a914610097578063ad5c4648146100b5578063d06ca61f146100d3578063db068e0e14610103578063e0bab4c41461011f575b600080fd5b610081600480360381019061007c91906109a9565b61013d565b60405161008e9190610b01565b60405180910390f35b61009f61072c565b6040516100ac9190610b32565b60405180910390f35b6100bd610732565b6040516100ca9190610b5c565b60405180910390f35b6100ed60048036038101906100e89190610b77565b610756565b6040516100fa9190610b01565b60405180910390f35b61011d60048036038101906101189190610bd7565b61084b565b005b61012761087d565b6040516101349190610b5c565b60405180910390f35b6060610153678bbaaf4d1888d8b960c01b6108a3565b61016767e9f6032e7694f8bb60c01b6108a3565b61017b671e8e5666a48f2b2060c01b6108a3565b61018f67112b3e61957b30ce60c01b6108a3565b428210156101d2576040517f08c379a00000000000000000000000000000000000000000000000000000000081526004016101c990610c61565b60405180910390fd5b6101e667f8a54653c2128c0360c01b6108a3565b6101fa676fda3bca0336d81460c01b6108a3565b61020e67d56c3d238b7f65e960c01b6108a3565b6102226710829173c73efb7360c01b6108a3565b60028585905014610268576040517f08c379a000000000000000000000000000000000000000000000000000000000815260040161025f90610cf3565b60405180910390fd5b61027c6733cbd5a425dc6dea60c01b6108a3565b610290675208cd8d09df0c0a60c01b6108a3565b6102a4671a491ba7f0b0b9df60c01b6108a3565b6000858560008181106102ba576102b9610d13565b5b90506020020160208101906102cf9190610d42565b90506102e567dd670205838908fb60c01b6108a3565b6102f967efdd33ae50bd15e760c01b6108a3565b60008686600181811061030f5761030e610d13565b5b90506020020160208101906103249190610d42565b905061033a672607c8c2e7b6309560c01b6108a3565b61034e6739fa91da3aa5656f60c01b6108a3565b60008273ffffffffffffffffffffffffffffffffffffffff166323b872dd33308d6040518463ffffffff1660e01b815260040161038d93929190610d6f565b6020604051808303816000875af11580156103ac573d6000803e3d6000fd5b505050506040513d601f19601f820116820180604052508101906103d09190610dde565b90506103e6675861299407a3ac3360c01b6108a3565b6103fa6790903bb1b425485960c01b6108a3565b61040e6790a612071abeb74760c01b6108a3565b8061044e576040517f08c379a000000000000000000000000000000000000000000000000000000000815260040161044590610e57565b60405180910390fd5b6104626725cd29e1d7746f5760c01b6108a3565b6104766753066d8537a3a0a660c01b6108a3565b61048a677501ad3e89c5d49b60c01b6108a3565b600060028b6104999190610ea6565b90506104af6783235233e071d40460c01b6108a3565b6104c3673e7abe3a3d1db4cf60c01b6108a3565b6104d767282ec96a5c503c0060c01b6108a3565b8981101561051a576040517f08c379a000000000000000000000000000000000000000000000000000000000815260040161051190610f5a565b60405180910390fd5b61052e670cc08d1af025929860c01b6108a3565b610542674dfcf597d8fd938460c01b6108a3565b8273ffffffffffffffffffffffffffffffffffffffff1663a9059cbb88836040518363ffffffff1660e01b815260040161057d929190610f7a565b6020604051808303816000875af115801561059c573d6000803e3d6000fd5b505050506040513d601f19601f820116820180604052508101906105c09190610dde565b91506105d667b37397025631cadb60c01b6108a3565b6105ea67b39a6b60f2cec72160c01b6108a3565b6105fe674a7af9a8af200dd260c01b6108a3565b8161063e576040517f08c379a000000000000000000000000000000000000000000000000000000000815260040161063590610fef565b60405180910390fd5b61065267c25b7b62679869bf60c01b6108a3565b610666677bce2fa9594b881b60c01b6108a3565b8888905067ffffffffffffffff8111156106835761068261100f565b5b6040519080825280602002602001820160405280156106b15781602001602082028036833780820191505090505b5094506106c867dc310feaaf765e1760c01b6108a3565b8a856000815181106106dd576106dc610d13565b5b6020026020010181815250506106fd67957dabeb9e3d3cda60c01b6108a3565b808560018151811061071257610711610d13565b5b602002602001018181525050505050509695505050505050565b60025481565b60008054906101000a900473ffffffffffffffffffffffffffffffffffffffff1681565b606061076c6712839f82b6400d1a60c01b6108a3565b61078067ffc178d44bb6c25460c01b6108a3565b8282905067ffffffffffffffff81111561079d5761079c61100f565b5b6040519080825280602002602001820160405280156107cb5781602001602082028036833780820191505090505b5090506107e2678015356d6cb5e86560c01b6108a3565b83816000815181106107f7576107f6610d13565b5b602002602001018181525050610817675623506f8bdd0c5060c01b6108a3565b6002846108249190610ea6565b8160018151811061083857610837610d13565b5b6020026020010181815250509392505050565b61085f677925930c0c389df660c01b6108a3565b61087367640729abd664fe7a60c01b6108a3565b8060028190555050565b600160009054906101000a900473ffffffffffffffffffffffffffffffffffffffff1681565b50565b600080fd5b600080fd5b6000819050919050565b6108c3816108b0565b81146108ce57600080fd5b50565b6000813590506108e0816108ba565b92915050565b600080fd5b600080fd5b600080fd5b60008083601f84011261090b5761090a6108e6565b5b8235905067ffffffffffffffff811115610928576109276108eb565b5b602083019150836020820283011115610944576109436108f0565b5b9250929050565b600073ffffffffffffffffffffffffffffffffffffffff82169050919050565b60006109768261094b565b9050919050565b6109868161096b565b811461099157600080fd5b50565b6000813590506109a38161097d565b92915050565b60008060008060008060a087890312156109c6576109c56108a6565b5b60006109d489828a016108d1565b96505060206109e589828a016108d1565b955050604087013567ffffffffffffffff811115610a0657610a056108ab565b5b610a1289828a016108f5565b94509450506060610a2589828a01610994565b9250506080610a3689828a016108d1565b9150509295509295509295565b600081519050919050565b600082825260208201905092915050565b6000819050602082019050919050565b610a78816108b0565b82525050565b6000610a8a8383610a6f565b60208301905092915050565b6000602082019050919050565b6000610aae82610a43565b610ab88185610a4e565b9350610ac383610a5f565b8060005b83811015610af4578151610adb8882610a7e565b9750610ae683610a96565b925050600181019050610ac7565b5085935050505092915050565b60006020820190508181036000830152610b1b8184610aa3565b905092915050565b610b2c816108b0565b82525050565b6000602082019050610b476000830184610b23565b92915050565b610b568161096b565b82525050565b6000602082019050610b716000830184610b4d565b92915050565b600080600060408486031215610b9057610b8f6108a6565b5b6000610b9e868287016108d1565b935050602084013567ffffffffffffffff811115610bbf57610bbe6108ab565b5b610bcb868287016108f5565b92509250509250925092565b600060208284031215610bed57610bec6108a6565b5b6000610bfb848285016108d1565b91505092915050565b600082825260208201905092915050565b7f5472616e73616374696f6e206578706972656400000000000000000000000000600082015250565b6000610c4b601383610c04565b9150610c5682610c15565b602082019050919050565b60006020820190508181036000830152610c7a81610c3e565b9050919050565b7f4f6e6c792074776f2d746f6b656e2073776170732061726520737570706f727460008201527f6564000000000000000000000000000000000000000000000000000000000000602082015250565b6000610cdd602283610c04565b9150610ce882610c81565b604082019050919050565b60006020820190508181036000830152610d0c81610cd0565b9050919050565b7f4e487b7100000000000000000000000000000000000000000000000000000000600052603260045260246000fd5b600060208284031215610d5857610d576108a6565b5b6000610d6684828501610994565b91505092915050565b6000606082019050610d846000830186610b4d565b610d916020830185610b4d565b610d9e6040830184610b23565b949350505050565b60008115159050919050565b610dbb81610da6565b8114610dc657600080fd5b50565b600081519050610dd881610db2565b92915050565b600060208284031215610df457610df36108a6565b5b6000610e0284828501610dc9565b91505092915050565b7f5472616e73666572206f6620746f6b656e496e206661696c6564000000000000600082015250565b6000610e41601a83610c04565b9150610e4c82610e0b565b602082019050919050565b60006020820190508181036000830152610e7081610e34565b9050919050565b7f4e487b7100000000000000000000000000000000000000000000000000000000600052601160045260246000fd5b6000610eb1826108b0565b9150610ebc836108b0565b9250828202610eca816108b0565b91508282048414831517610ee157610ee0610e77565b5b5092915050565b7f556e69737761705632526f757465723a20494e53554646494349454e545f4f5560008201527f545055545f414d4f554e54000000000000000000000000000000000000000000602082015250565b6000610f44602b83610c04565b9150610f4f82610ee8565b604082019050919050565b60006020820190508181036000830152610f7381610f37565b9050919050565b6000604082019050610f8f6000830185610b4d565b610f9c6020830184610b23565b9392505050565b7f5472616e73666572206f6620746f6b656e4f7574206661696c65640000000000600082015250565b6000610fd9601b83610c04565b9150610fe482610fa3565b602082019050919050565b6000602082019050818103600083015261100881610fcc565b9050919050565b7f4e487b7100000000000000000000000000000000000000000000000000000000600052604160045260246000fdfea26469706673582212203195932289fc41de0ac2a11f2afc568ab7ead62c6bcfbe5185df0803f083b0b264736f6c634300081b0033","opcodes":"PUSH1 0x80 PUSH1 0x40 MSTORE CALLVALUE DUP1 ISZERO PUSH2 0x10 JUMPI PUSH1 0x0 DUP1 REVERT JUMPDEST POP PUSH1 0x40 MLOAD PUSH2 0x129C CODESIZE SUB DUP1 PUSH2 0x129C DUP4 CODECOPY DUP2 DUP2 ADD PUSH1 0x40 MSTORE DUP2 ADD SWAP1 PUSH2 0x32 SWAP2 SWAP1 PUSH2 0x1C6 JUMP JUMPDEST PUSH2 0x4C PUSH8 0xC474A50D5E70350D PUSH1 0xC0 SHL PUSH2 0x12A PUSH1 0x20 SHL PUSH1 0x20 SHR JUMP JUMPDEST PUSH2 0x66 PUSH8 0xB43F64E05D8868BA PUSH1 0xC0 SHL PUSH2 0x12A PUSH1 0x20 SHL PUSH1 0x20 SHR JUMP JUMPDEST DUP3 PUSH1 0x0 DUP1 PUSH2 0x100 EXP DUP2 SLOAD DUP2 PUSH20 0xFFFFFFFFFFFFFFFFFFFFFFFFFFFFFFFFFFFFFFFF MUL NOT AND SWAP1 DUP4 PUSH20 0xFFFFFFFFFFFFFFFFFFFFFFFFFFFFFFFFFFFFFFFF AND MUL OR SWAP1 SSTORE POP PUSH2 0xC0 PUSH8 0x9B66BAB474B237D5 PUSH1 0xC0 SHL PUSH2 0x12A PUSH1 0x20 SHL PUSH1 0x20 SHR JUMP JUMPDEST DUP2 PUSH1 0x1 PUSH1 0x0 PUSH2 0x100 EXP DUP2 SLOAD DUP2 PUSH20 0xFFFFFFFFFFFFFFFFFFFFFFFFFFFFFFFFFFFFFFFF MUL NOT AND SWAP1 DUP4 PUSH20 0xFFFFFFFFFFFFFFFFFFFFFFFFFFFFFFFFFFFFFFFF AND MUL OR SWAP1 SSTORE POP PUSH2 0x11B PUSH8 0xDBF426C08248A773 PUSH1 0xC0 SHL PUSH2 0x12A PUSH1 0x20 SHL PUSH1 0x20 SHR JUMP JUMPDEST DUP1 PUSH1 0x2 DUP2 SWAP1 SSTORE POP POP POP POP PUSH2 0x219 JUMP JUMPDEST POP JUMP JUMPDEST PUSH1 0x0 DUP1 REVERT JUMPDEST PUSH1 0x0 PUSH20 0xFFFFFFFFFFFFFFFFFFFFFFFFFFFFFFFFFFFFFFFF DUP3 AND SWAP1 POP SWAP2 SWAP1 POP JUMP JUMPDEST PUSH1 0x0 PUSH2 0x15D DUP3 PUSH2 0x132 JUMP JUMPDEST SWAP1 POP SWAP2 SWAP1 POP JUMP JUMPDEST PUSH2 0x16D DUP2 PUSH2 0x152 JUMP JUMPDEST DUP2 EQ PUSH2 0x178 JUMPI PUSH1 0x0 DUP1 REVERT JUMPDEST POP JUMP JUMPDEST PUSH1 0x0 DUP2 MLOAD SWAP1 POP PUSH2 0x18A DUP2 PUSH2 0x164 JUMP JUMPDEST SWAP3 SWAP2 POP POP JUMP JUMPDEST PUSH1 0x0 DUP2 SWAP1 POP SWAP2 SWAP1 POP JUMP JUMPDEST PUSH2 0x1A3 DUP2 PUSH2 0x190 JUMP JUMPDEST DUP2 EQ PUSH2 0x1AE JUMPI PUSH1 0x0 DUP1 REVERT JUMPDEST POP JUMP JUMPDEST PUSH1 0x0 DUP2 MLOAD SWAP1 POP PUSH2 0x1C0 DUP2 PUSH2 0x19A JUMP JUMPDEST SWAP3 SWAP2 POP POP JUMP JUMPDEST PUSH1 0x0 DUP1 PUSH1 0x0 PUSH1 0x60 DUP5 DUP7 SUB SLT ISZERO PUSH2 0x1DF JUMPI PUSH2 0x1DE PUSH2 0x12D JUMP JUMPDEST JUMPDEST PUSH1 0x0 PUSH2 0x1ED DUP7 DUP3 DUP8 ADD PUSH2 0x17B JUMP JUMPDEST SWAP4 POP POP PUSH1 0x20 PUSH2 0x1FE DUP7 DUP3 DUP8 ADD PUSH2 0x17B JUMP JUMPDEST SWAP3 POP POP PUSH1 0x40 PUSH2 0x20F DUP7 DUP3 DUP8 ADD PUSH2 0x1B1 JUMP JUMPDEST SWAP2 POP POP SWAP3 POP SWAP3 POP SWAP3 JUMP JUMPDEST PUSH2 0x1074 DUP1 PUSH2 0x228 PUSH1 0x0 CODECOPY PUSH1 0x0 RETURN INVALID PUSH1 0x80 PUSH1 0x40 MSTORE CALLVALUE DUP1 ISZERO PUSH2 0x10 JUMPI PUSH1 0x0 DUP1 REVERT JUMPDEST POP PUSH1 0x4 CALLDATASIZE LT PUSH2 0x62 JUMPI PUSH1 0x0 CALLDATALOAD PUSH1 0xE0 SHR DUP1 PUSH4 0x38ED1739 EQ PUSH2 0x67 JUMPI DUP1 PUSH4 0x3BA0B9A9 EQ PUSH2 0x97 JUMPI DUP1 PUSH4 0xAD5C4648 EQ PUSH2 0xB5 JUMPI DUP1 PUSH4 0xD06CA61F EQ PUSH2 0xD3 JUMPI DUP1 PUSH4 0xDB068E0E EQ PUSH2 0x103 JUMPI DUP1 PUSH4 0xE0BAB4C4 EQ PUSH2 0x11F JUMPI JUMPDEST PUSH1 0x0 DUP1 REVERT JUMPDEST PUSH2 0x81 PUSH1 0x4 DUP1 CALLDATASIZE SUB DUP2 ADD SWAP1 PUSH2 0x7C SWAP2 SWAP1 PUSH2 0x9A9 JUMP JUMPDEST PUSH2 0x13D JUMP JUMPDEST PUSH1 0x40 MLOAD PUSH2 0x8E SWAP2 SWAP1 PUSH2 0xB01 JUMP JUMPDEST PUSH1 0x40 MLOAD DUP1 SWAP2 SUB SWAP1 RETURN JUMPDEST PUSH2 0x9F PUSH2 0x72C JUMP JUMPDEST PUSH1 0x40 MLOAD PUSH2 0xAC SWAP2 SWAP1 PUSH2 0xB32 JUMP JUMPDEST PUSH1 0x40 MLOAD DUP1 SWAP2 SUB SWAP1 RETURN JUMPDEST PUSH2 0xBD PUSH2 0x732 JUMP JUMPDEST PUSH1 0x40 MLOAD PUSH2 0xCA SWAP2 SWAP1 PUSH2 0xB5C JUMP JUMPDEST PUSH1 0x40 MLOAD DUP1 SWAP2 SUB SWAP1 RETURN JUMPDEST PUSH2 0xED PUSH1 0x4 DUP1 CALLDATASIZE SUB DUP2 ADD SWAP1 PUSH2 0xE8 SWAP2 SWAP1 PUSH2 0xB77 JUMP JUMPDEST PUSH2 0x756 JUMP JUMPDEST PUSH1 0x40 MLOAD PUSH2 0xFA SWAP2 SWAP1 PUSH2 0xB01 JUMP JUMPDEST PUSH1 0x40 MLOAD DUP1 SWAP2 SUB SWAP1 RETURN JUMPDEST PUSH2 0x11D PUSH1 0x4 DUP1 CALLDATASIZE SUB DUP2 ADD SWAP1 PUSH2 0x118 SWAP2 SWAP1 PUSH2 0xBD7 JUMP JUMPDEST PUSH2 0x84B JUMP JUMPDEST STOP JUMPDEST PUSH2 0x127 PUSH2 0x87D JUMP JUMPDEST PUSH1 0x40 MLOAD PUSH2 0x134 SWAP2 SWAP1 PUSH2 0xB5C JUMP JUMPDEST PUSH1 0x40 MLOAD DUP1 SWAP2 SUB SWAP1 RETURN JUMPDEST PUSH1 0x60 PUSH2 0x153 PUSH8 0x8BBAAF4D1888D8B9 PUSH1 0xC0 SHL PUSH2 0x8A3 JUMP JUMPDEST PUSH2 0x167 PUSH8 0xE9F6032E7694F8BB PUSH1 0xC0 SHL PUSH2 0x8A3 JUMP JUMPDEST PUSH2 0x17B PUSH8 0x1E8E5666A48F2B20 PUSH1 0xC0 SHL PUSH2 0x8A3 JUMP JUMPDEST PUSH2 0x18F PUSH8 0x112B3E61957B30CE PUSH1 0xC0 SHL PUSH2 0x8A3 JUMP JUMPDEST TIMESTAMP DUP3 LT ISZERO PUSH2 0x1D2 JUMPI PUSH1 0x40 MLOAD PUSH32 0x8C379A000000000000000000000000000000000000000000000000000000000 DUP2 MSTORE PUSH1 0x4 ADD PUSH2 0x1C9 SWAP1 PUSH2 0xC61 JUMP JUMPDEST PUSH1 0x40 MLOAD DUP1 SWAP2 SUB SWAP1 REVERT JUMPDEST PUSH2 0x1E6 PUSH8 0xF8A54653C2128C03 PUSH1 0xC0 SHL PUSH2 0x8A3 JUMP JUMPDEST PUSH2 0x1FA PUSH8 0x6FDA3BCA0336D814 PUSH1 0xC0 SHL PUSH2 0x8A3 JUMP JUMPDEST PUSH2 0x20E PUSH8 0xD56C3D238B7F65E9 PUSH1 0xC0 SHL PUSH2 0x8A3 JUMP JUMPDEST PUSH2 0x222 PUSH8 0x10829173C73EFB73 PUSH1 0xC0 SHL PUSH2 0x8A3 JUMP JUMPDEST PUSH1 0x2 DUP6 DUP6 SWAP1 POP EQ PUSH2 0x268 JUMPI PUSH1 0x40 MLOAD PUSH32 0x8C379A000000000000000000000000000000000000000000000000000000000 DUP2 MSTORE PUSH1 0x4 ADD PUSH2 0x25F SWAP1 PUSH2 0xCF3 JUMP JUMPDEST PUSH1 0x40 MLOAD DUP1 SWAP2 SUB SWAP1 REVERT JUMPDEST PUSH2 0x27C PUSH8 0x33CBD5A425DC6DEA PUSH1 0xC0 SHL PUSH2 0x8A3 JUMP JUMPDEST PUSH2 0x290 PUSH8 0x5208CD8D09DF0C0A PUSH1 0xC0 SHL PUSH2 0x8A3 JUMP JUMPDEST PUSH2 0x2A4 PUSH8 0x1A491BA7F0B0B9DF PUSH1 0xC0 SHL PUSH2 0x8A3 JUMP JUMPDEST PUSH1 0x0 DUP6 DUP6 PUSH1 0x0 DUP2 DUP2 LT PUSH2 0x2BA JUMPI PUSH2 0x2B9 PUSH2 0xD13 JUMP JUMPDEST JUMPDEST SWAP1 POP PUSH1 0x20 MUL ADD PUSH1 0x20 DUP2 ADD SWAP1 PUSH2 0x2CF SWAP2 SWAP1 PUSH2 0xD42 JUMP JUMPDEST SWAP1 POP PUSH2 0x2E5 PUSH8 0xDD670205838908FB PUSH1 0xC0 SHL PUSH2 0x8A3 JUMP JUMPDEST PUSH2 0x2F9 PUSH8 0xEFDD33AE50BD15E7 PUSH1 0xC0 SHL PUSH2 0x8A3 JUMP JUMPDEST PUSH1 0x0 DUP7 DUP7 PUSH1 0x1 DUP2 DUP2 LT PUSH2 0x30F JUMPI PUSH2 0x30E PUSH2 0xD13 JUMP JUMPDEST JUMPDEST SWAP1 POP PUSH1 0x20 MUL ADD PUSH1 0x20 DUP2 ADD SWAP1 PUSH2 0x324 SWAP2 SWAP1 PUSH2 0xD42 JUMP JUMPDEST SWAP1 POP PUSH2 0x33A PUSH8 0x2607C8C2E7B63095 PUSH1 0xC0 SHL PUSH2 0x8A3 JUMP JUMPDEST PUSH2 0x34E PUSH8 0x39FA91DA3AA5656F PUSH1 0xC0 SHL PUSH2 0x8A3 JUMP JUMPDEST PUSH1 0x0 DUP3 PUSH20 0xFFFFFFFFFFFFFFFFFFFFFFFFFFFFFFFFFFFFFFFF AND PUSH4 0x23B872DD CALLER ADDRESS DUP14 PUSH1 0x40 MLOAD DUP5 PUSH4 0xFFFFFFFF AND PUSH1 0xE0 SHL DUP2 MSTORE PUSH1 0x4 ADD PUSH2 0x38D SWAP4 SWAP3 SWAP2 SWAP1 PUSH2 0xD6F JUMP JUMPDEST PUSH1 0x20 PUSH1 0x40 MLOAD DUP1 DUP4 SUB DUP2 PUSH1 0x0 DUP8 GAS CALL ISZERO DUP1 ISZERO PUSH2 0x3AC JUMPI RETURNDATASIZE PUSH1 0x0 DUP1 RETURNDATACOPY RETURNDATASIZE PUSH1 0x0 REVERT JUMPDEST POP POP POP POP PUSH1 0x40 MLOAD RETURNDATASIZE PUSH1 0x1F NOT PUSH1 0x1F DUP3 ADD AND DUP3 ADD DUP1 PUSH1 0x40 MSTORE POP DUP2 ADD SWAP1 PUSH2 0x3D0 SWAP2 SWAP1 PUSH2 0xDDE JUMP JUMPDEST SWAP1 POP PUSH2 0x3E6 PUSH8 0x5861299407A3AC33 PUSH1 0xC0 SHL PUSH2 0x8A3 JUMP JUMPDEST PUSH2 0x3FA PUSH8 0x90903BB1B4254859 PUSH1 0xC0 SHL PUSH2 0x8A3 JUMP JUMPDEST PUSH2 0x40E PUSH8 0x90A612071ABEB747 PUSH1 0xC0 SHL PUSH2 0x8A3 JUMP JUMPDEST DUP1 PUSH2 0x44E JUMPI PUSH1 0x40 MLOAD PUSH32 0x8C379A000000000000000000000000000000000000000000000000000000000 DUP2 MSTORE PUSH1 0x4 ADD PUSH2 0x445 SWAP1 PUSH2 0xE57 JUMP JUMPDEST PUSH1 0x40 MLOAD DUP1 SWAP2 SUB SWAP1 REVERT JUMPDEST PUSH2 0x462 PUSH8 0x25CD29E1D7746F57 PUSH1 0xC0 SHL PUSH2 0x8A3 JUMP JUMPDEST PUSH2 0x476 PUSH8 0x53066D8537A3A0A6 PUSH1 0xC0 SHL PUSH2 0x8A3 JUMP JUMPDEST PUSH2 0x48A PUSH8 0x7501AD3E89C5D49B PUSH1 0xC0 SHL PUSH2 0x8A3 JUMP JUMPDEST PUSH1 0x0 PUSH1 0x2 DUP12 PUSH2 0x499 SWAP2 SWAP1 PUSH2 0xEA6 JUMP JUMPDEST SWAP1 POP PUSH2 0x4AF PUSH8 0x83235233E071D404 PUSH1 0xC0 SHL PUSH2 0x8A3 JUMP JUMPDEST PUSH2 0x4C3 PUSH8 0x3E7ABE3A3D1DB4CF PUSH1 0xC0 SHL PUSH2 0x8A3 JUMP JUMPDEST PUSH2 0x4D7 PUSH8 0x282EC96A5C503C00 PUSH1 0xC0 SHL PUSH2 0x8A3 JUMP JUMPDEST DUP10 DUP2 LT ISZERO PUSH2 0x51A JUMPI PUSH1 0x40 MLOAD PUSH32 0x8C379A000000000000000000000000000000000000000000000000000000000 DUP2 MSTORE PUSH1 0x4 ADD PUSH2 0x511 SWAP1 PUSH2 0xF5A JUMP JUMPDEST PUSH1 0x40 MLOAD DUP1 SWAP2 SUB SWAP1 REVERT JUMPDEST PUSH2 0x52E PUSH8 0xCC08D1AF0259298 PUSH1 0xC0 SHL PUSH2 0x8A3 JUMP JUMPDEST PUSH2 0x542 PUSH8 0x4DFCF597D8FD9384 PUSH1 0xC0 SHL PUSH2 0x8A3 JUMP JUMPDEST DUP3 PUSH20 0xFFFFFFFFFFFFFFFFFFFFFFFFFFFFFFFFFFFFFFFF AND PUSH4 0xA9059CBB DUP9 DUP4 PUSH1 0x40 MLOAD DUP4 PUSH4 0xFFFFFFFF AND PUSH1 0xE0 SHL DUP2 MSTORE PUSH1 0x4 ADD PUSH2 0x57D SWAP3 SWAP2 SWAP1 PUSH2 0xF7A JUMP JUMPDEST PUSH1 0x20 PUSH1 0x40 MLOAD DUP1 DUP4 SUB DUP2 PUSH1 0x0 DUP8 GAS CALL ISZERO DUP1 ISZERO PUSH2 0x59C JUMPI RETURNDATASIZE PUSH1 0x0 DUP1 RETURNDATACOPY RETURNDATASIZE PUSH1 0x0 REVERT JUMPDEST POP POP POP POP PUSH1 0x40 MLOAD RETURNDATASIZE PUSH1 0x1F NOT PUSH1 0x1F DUP3 ADD AND DUP3 ADD DUP1 PUSH1 0x40 MSTORE POP DUP2 ADD SWAP1 PUSH2 0x5C0 SWAP2 SWAP1 PUSH2 0xDDE JUMP JUMPDEST SWAP2 POP PUSH2 0x5D6 PUSH8 0xB37397025631CADB PUSH1 0xC0 SHL PUSH2 0x8A3 JUMP JUMPDEST PUSH2 0x5EA PUSH8 0xB39A6B60F2CEC721 PUSH1 0xC0 SHL PUSH2 0x8A3 JUMP JUMPDEST PUSH2 0x5FE PUSH8 0x4A7AF9A8AF200DD2 PUSH1 0xC0 SHL PUSH2 0x8A3 JUMP JUMPDEST DUP2 PUSH2 0x63E JUMPI PUSH1 0x40 MLOAD PUSH32 0x8C379A000000000000000000000000000000000000000000000000000000000 DUP2 MSTORE PUSH1 0x4 ADD PUSH2 0x635 SWAP1 PUSH2 0xFEF JUMP JUMPDEST PUSH1 0x40 MLOAD DUP1 SWAP2 SUB SWAP1 REVERT JUMPDEST PUSH2 0x652 PUSH8 0xC25B7B62679869BF PUSH1 0xC0 SHL PUSH2 0x8A3 JUMP JUMPDEST PUSH2 0x666 PUSH8 0x7BCE2FA9594B881B PUSH1 0xC0 SHL PUSH2 0x8A3 JUMP JUMPDEST DUP9 DUP9 SWAP1 POP PUSH8 0xFFFFFFFFFFFFFFFF DUP2 GT ISZERO PUSH2 0x683 JUMPI PUSH2 0x682 PUSH2 0x100F JUMP JUMPDEST JUMPDEST PUSH1 0x40 MLOAD SWAP1 DUP1 DUP3 MSTORE DUP1 PUSH1 0x20 MUL PUSH1 0x20 ADD DUP3 ADD PUSH1 0x40 MSTORE DUP1 ISZERO PUSH2 0x6B1 JUMPI DUP2 PUSH1 0x20 ADD PUSH1 0x20 DUP3 MUL DUP1 CALLDATASIZE DUP4 CALLDATACOPY DUP1 DUP3 ADD SWAP2 POP POP SWAP1 POP JUMPDEST POP SWAP5 POP PUSH2 0x6C8 PUSH8 0xDC310FEAAF765E17 PUSH1 0xC0 SHL PUSH2 0x8A3 JUMP JUMPDEST DUP11 DUP6 PUSH1 0x0 DUP2 MLOAD DUP2 LT PUSH2 0x6DD JUMPI PUSH2 0x6DC PUSH2 0xD13 JUMP JUMPDEST JUMPDEST PUSH1 0x20 MUL PUSH1 0x20 ADD ADD DUP2 DUP2 MSTORE POP POP PUSH2 0x6FD PUSH8 0x957DABEB9E3D3CDA PUSH1 0xC0 SHL PUSH2 0x8A3 JUMP JUMPDEST DUP1 DUP6 PUSH1 0x1 DUP2 MLOAD DUP2 LT PUSH2 0x712 JUMPI PUSH2 0x711 PUSH2 0xD13 JUMP JUMPDEST JUMPDEST PUSH1 0x20 MUL PUSH1 0x20 ADD ADD DUP2 DUP2 MSTORE POP POP POP POP POP POP SWAP7 SWAP6 POP POP POP POP POP POP JUMP JUMPDEST PUSH1 0x2 SLOAD DUP2 JUMP JUMPDEST PUSH1 0x0 DUP1 SLOAD SWAP1 PUSH2 0x100 EXP SWAP1 DIV PUSH20 0xFFFFFFFFFFFFFFFFFFFFFFFFFFFFFFFFFFFFFFFF AND DUP2 JUMP JUMPDEST PUSH1 0x60 PUSH2 0x76C PUSH8 0x12839F82B6400D1A PUSH1 0xC0 SHL PUSH2 0x8A3 JUMP JUMPDEST PUSH2 0x780 PUSH8 0xFFC178D44BB6C254 PUSH1 0xC0 SHL PUSH2 0x8A3 JUMP JUMPDEST DUP3 DUP3 SWAP1 POP PUSH8 0xFFFFFFFFFFFFFFFF DUP2 GT ISZERO PUSH2 0x79D JUMPI PUSH2 0x79C PUSH2 0x100F JUMP JUMPDEST JUMPDEST PUSH1 0x40 MLOAD SWAP1 DUP1 DUP3 MSTORE DUP1 PUSH1 0x20 MUL PUSH1 0x20 ADD DUP3 ADD PUSH1 0x40 MSTORE DUP1 ISZERO PUSH2 0x7CB JUMPI DUP2 PUSH1 0x20 ADD PUSH1 0x20 DUP3 MUL DUP1 CALLDATASIZE DUP4 CALLDATACOPY DUP1 DUP3 ADD SWAP2 POP POP SWAP1 POP JUMPDEST POP SWAP1 POP PUSH2 0x7E2 PUSH8 0x8015356D6CB5E865 PUSH1 0xC0 SHL PUSH2 0x8A3 JUMP JUMPDEST DUP4 DUP2 PUSH1 0x0 DUP2 MLOAD DUP2 LT PUSH2 0x7F7 JUMPI PUSH2 0x7F6 PUSH2 0xD13 JUMP JUMPDEST JUMPDEST PUSH1 0x20 MUL PUSH1 0x20 ADD ADD DUP2 DUP2 MSTORE POP POP PUSH2 0x817 PUSH8 0x5623506F8BDD0C50 PUSH1 0xC0 SHL PUSH2 0x8A3 JUMP JUMPDEST PUSH1 0x2 DUP5 PUSH2 0x824 SWAP2 SWAP1 PUSH2 0xEA6 JUMP JUMPDEST DUP2 PUSH1 0x1 DUP2 MLOAD DUP2 LT PUSH2 0x838 JUMPI PUSH2 0x837 PUSH2 0xD13 JUMP JUMPDEST JUMPDEST PUSH1 0x20 MUL PUSH1 0x20 ADD ADD DUP2 DUP2 MSTORE POP POP SWAP4 SWAP3 POP POP POP JUMP JUMPDEST PUSH2 0x85F PUSH8 0x7925930C0C389DF6 PUSH1 0xC0 SHL PUSH2 0x8A3 JUMP JUMPDEST PUSH2 0x873 PUSH8 0x640729ABD664FE7A PUSH1 0xC0 SHL PUSH2 0x8A3 JUMP JUMPDEST DUP1 PUSH1 0x2 DUP2 SWAP1 SSTORE POP POP JUMP JUMPDEST PUSH1 0x1 PUSH1 0x0 SWAP1 SLOAD SWAP1 PUSH2 0x100 EXP SWAP1 DIV PUSH20 0xFFFFFFFFFFFFFFFFFFFFFFFFFFFFFFFFFFFFFFFF AND DUP2 JUMP JUMPDEST POP JUMP JUMPDEST PUSH1 0x0 DUP1 REVERT JUMPDEST PUSH1 0x0 DUP1 REVERT JUMPDEST PUSH1 0x0 DUP2 SWAP1 POP SWAP2 SWAP1 POP JUMP JUMPDEST PUSH2 0x8C3 DUP2 PUSH2 0x8B0 JUMP JUMPDEST DUP2 EQ PUSH2 0x8CE JUMPI PUSH1 0x0 DUP1 REVERT JUMPDEST POP JUMP JUMPDEST PUSH1 0x0 DUP2 CALLDATALOAD SWAP1 POP PUSH2 0x8E0 DUP2 PUSH2 0x8BA JUMP JUMPDEST SWAP3 SWAP2 POP POP JUMP JUMPDEST PUSH1 0x0 DUP1 REVERT JUMPDEST PUSH1 0x0 DUP1 REVERT JUMPDEST PUSH1 0x0 DUP1 REVERT JUMPDEST PUSH1 0x0 DUP1 DUP4 PUSH1 0x1F DUP5 ADD SLT PUSH2 0x90B JUMPI PUSH2 0x90A PUSH2 0x8E6 JUMP JUMPDEST JUMPDEST DUP3 CALLDATALOAD SWAP1 POP PUSH8 0xFFFFFFFFFFFFFFFF DUP2 GT ISZERO PUSH2 0x928 JUMPI PUSH2 0x927 PUSH2 0x8EB JUMP JUMPDEST JUMPDEST PUSH1 0x20 DUP4 ADD SWAP2 POP DUP4 PUSH1 0x20 DUP3 MUL DUP4 ADD GT ISZERO PUSH2 0x944 JUMPI PUSH2 0x943 PUSH2 0x8F0 JUMP JUMPDEST JUMPDEST SWAP3 POP SWAP3 SWAP1 POP JUMP JUMPDEST PUSH1 0x0 PUSH20 0xFFFFFFFFFFFFFFFFFFFFFFFFFFFFFFFFFFFFFFFF DUP3 AND SWAP1 POP SWAP2 SWAP1 POP JUMP JUMPDEST PUSH1 0x0 PUSH2 0x976 DUP3 PUSH2 0x94B JUMP JUMPDEST SWAP1 POP SWAP2 SWAP1 POP JUMP JUMPDEST PUSH2 0x986 DUP2 PUSH2 0x96B JUMP JUMPDEST DUP2 EQ PUSH2 0x991 JUMPI PUSH1 0x0 DUP1 REVERT JUMPDEST POP JUMP JUMPDEST PUSH1 0x0 DUP2 CALLDATALOAD SWAP1 POP PUSH2 0x9A3 DUP2 PUSH2 0x97D JUMP JUMPDEST SWAP3 SWAP2 POP POP JUMP JUMPDEST PUSH1 0x0 DUP1 PUSH1 0x0 DUP1 PUSH1 0x0 DUP1 PUSH1 0xA0 DUP8 DUP10 SUB SLT ISZERO PUSH2 0x9C6 JUMPI PUSH2 0x9C5 PUSH2 0x8A6 JUMP JUMPDEST JUMPDEST PUSH1 0x0 PUSH2 0x9D4 DUP10 DUP3 DUP11 ADD PUSH2 0x8D1 JUMP JUMPDEST SWAP7 POP POP PUSH1 0x20 PUSH2 0x9E5 DUP10 DUP3 DUP11 ADD PUSH2 0x8D1 JUMP JUMPDEST SWAP6 POP POP PUSH1 0x40 DUP8 ADD CALLDATALOAD PUSH8 0xFFFFFFFFFFFFFFFF DUP2 GT ISZERO PUSH2 0xA06 JUMPI PUSH2 0xA05 PUSH2 0x8AB JUMP JUMPDEST JUMPDEST PUSH2 0xA12 DUP10 DUP3 DUP11 ADD PUSH2 0x8F5 JUMP JUMPDEST SWAP5 POP SWAP5 POP POP PUSH1 0x60 PUSH2 0xA25 DUP10 DUP3 DUP11 ADD PUSH2 0x994 JUMP JUMPDEST SWAP3 POP POP PUSH1 0x80 PUSH2 0xA36 DUP10 DUP3 DUP11 ADD PUSH2 0x8D1 JUMP JUMPDEST SWAP2 POP POP SWAP3 SWAP6 POP SWAP3 SWAP6 POP SWAP3 SWAP6 JUMP JUMPDEST PUSH1 0x0 DUP2 MLOAD SWAP1 POP SWAP2 SWAP1 POP JUMP JUMPDEST PUSH1 0x0 DUP3 DUP3 MSTORE PUSH1 0x20 DUP3 ADD SWAP1 POP SWAP3 SWAP2 POP POP JUMP JUMPDEST PUSH1 0x0 DUP2 SWAP1 POP PUSH1 0x20 DUP3 ADD SWAP1 POP SWAP2 SWAP1 POP JUMP JUMPDEST PUSH2 0xA78 DUP2 PUSH2 0x8B0 JUMP JUMPDEST DUP3 MSTORE POP POP JUMP JUMPDEST PUSH1 0x0 PUSH2 0xA8A DUP4 DUP4 PUSH2 0xA6F JUMP JUMPDEST PUSH1 0x20 DUP4 ADD SWAP1 POP SWAP3 SWAP2 POP POP JUMP JUMPDEST PUSH1 0x0 PUSH1 0x20 DUP3 ADD SWAP1 POP SWAP2 SWAP1 POP JUMP JUMPDEST PUSH1 0x0 PUSH2 0xAAE DUP3 PUSH2 0xA43 JUMP JUMPDEST PUSH2 0xAB8 DUP2 DUP6 PUSH2 0xA4E JUMP JUMPDEST SWAP4 POP PUSH2 0xAC3 DUP4 PUSH2 0xA5F JUMP JUMPDEST DUP1 PUSH1 0x0 JUMPDEST DUP4 DUP2 LT ISZERO PUSH2 0xAF4 JUMPI DUP2 MLOAD PUSH2 0xADB DUP9 DUP3 PUSH2 0xA7E JUMP JUMPDEST SWAP8 POP PUSH2 0xAE6 DUP4 PUSH2 0xA96 JUMP JUMPDEST SWAP3 POP POP PUSH1 0x1 DUP2 ADD SWAP1 POP PUSH2 0xAC7 JUMP JUMPDEST POP DUP6 SWAP4 POP POP POP POP SWAP3 SWAP2 POP POP JUMP JUMPDEST PUSH1 0x0 PUSH1 0x20 DUP3 ADD SWAP1 POP DUP2 DUP2 SUB PUSH1 0x0 DUP4 ADD MSTORE PUSH2 0xB1B DUP2 DUP5 PUSH2 0xAA3 JUMP JUMPDEST SWAP1 POP SWAP3 SWAP2 POP POP JUMP JUMPDEST PUSH2 0xB2C DUP2 PUSH2 0x8B0 JUMP JUMPDEST DUP3 MSTORE POP POP JUMP JUMPDEST PUSH1 0x0 PUSH1 0x20 DUP3 ADD SWAP1 POP PUSH2 0xB47 PUSH1 0x0 DUP4 ADD DUP5 PUSH2 0xB23 JUMP JUMPDEST SWAP3 SWAP2 POP POP JUMP JUMPDEST PUSH2 0xB56 DUP2 PUSH2 0x96B JUMP JUMPDEST DUP3 MSTORE POP POP JUMP JUMPDEST PUSH1 0x0 PUSH1 0x20 DUP3 ADD SWAP1 POP PUSH2 0xB71 PUSH1 0x0 DUP4 ADD DUP5 PUSH2 0xB4D JUMP JUMPDEST SWAP3 SWAP2 POP POP JUMP JUMPDEST PUSH1 0x0 DUP1 PUSH1 0x0 PUSH1 0x40 DUP5 DUP7 SUB SLT ISZERO PUSH2 0xB90 JUMPI PUSH2 0xB8F PUSH2 0x8A6 JUMP JUMPDEST JUMPDEST PUSH1 0x0 PUSH2 0xB9E DUP7 DUP3 DUP8 ADD PUSH2 0x8D1 JUMP JUMPDEST SWAP4 POP POP PUSH1 0x20 DUP5 ADD CALLDATALOAD PUSH8 0xFFFFFFFFFFFFFFFF DUP2 GT ISZERO PUSH2 0xBBF JUMPI PUSH2 0xBBE PUSH2 0x8AB JUMP JUMPDEST JUMPDEST PUSH2 0xBCB DUP7 DUP3 DUP8 ADD PUSH2 0x8F5 JUMP JUMPDEST SWAP3 POP SWAP3 POP POP SWAP3 POP SWAP3 POP SWAP3 JUMP JUMPDEST PUSH1 0x0 PUSH1 0x20 DUP3 DUP5 SUB SLT ISZERO PUSH2 0xBED JUMPI PUSH2 0xBEC PUSH2 0x8A6 JUMP JUMPDEST JUMPDEST PUSH1 0x0 PUSH2 0xBFB DUP5 DUP3 DUP6 ADD PUSH2 0x8D1 JUMP JUMPDEST SWAP2 POP POP SWAP3 SWAP2 POP POP JUMP JUMPDEST PUSH1 0x0 DUP3 DUP3 MSTORE PUSH1 0x20 DUP3 ADD SWAP1 POP SWAP3 SWAP2 POP POP JUMP JUMPDEST PUSH32 0x5472616E73616374696F6E206578706972656400000000000000000000000000 PUSH1 0x0 DUP3 ADD MSTORE POP JUMP JUMPDEST PUSH1 0x0 PUSH2 0xC4B PUSH1 0x13 DUP4 PUSH2 0xC04 JUMP JUMPDEST SWAP2 POP PUSH2 0xC56 DUP3 PUSH2 0xC15 JUMP JUMPDEST PUSH1 0x20 DUP3 ADD SWAP1 POP SWAP2 SWAP1 POP JUMP JUMPDEST PUSH1 0x0 PUSH1 0x20 DUP3 ADD SWAP1 POP DUP2 DUP2 SUB PUSH1 0x0 DUP4 ADD MSTORE PUSH2 0xC7A DUP2 PUSH2 0xC3E JUMP JUMPDEST SWAP1 POP SWAP2 SWAP1 POP JUMP JUMPDEST PUSH32 0x4F6E6C792074776F2D746F6B656E2073776170732061726520737570706F7274 PUSH1 0x0 DUP3 ADD MSTORE PUSH32 0x6564000000000000000000000000000000000000000000000000000000000000 PUSH1 0x20 DUP3 ADD MSTORE POP JUMP JUMPDEST PUSH1 0x0 PUSH2 0xCDD PUSH1 0x22 DUP4 PUSH2 0xC04 JUMP JUMPDEST SWAP2 POP PUSH2 0xCE8 DUP3 PUSH2 0xC81 JUMP JUMPDEST PUSH1 0x40 DUP3 ADD SWAP1 POP SWAP2 SWAP1 POP JUMP JUMPDEST PUSH1 0x0 PUSH1 0x20 DUP3 ADD SWAP1 POP DUP2 DUP2 SUB PUSH1 0x0 DUP4 ADD MSTORE PUSH2 0xD0C DUP2 PUSH2 0xCD0 JUMP JUMPDEST SWAP1 POP SWAP2 SWAP1 POP JUMP JUMPDEST PUSH32 0x4E487B7100000000000000000000000000000000000000000000000000000000 PUSH1 0x0 MSTORE PUSH1 0x32 PUSH1 0x4 MSTORE PUSH1 0x24 PUSH1 0x0 REVERT JUMPDEST PUSH1 0x0 PUSH1 0x20 DUP3 DUP5 SUB SLT ISZERO PUSH2 0xD58 JUMPI PUSH2 0xD57 PUSH2 0x8A6 JUMP JUMPDEST JUMPDEST PUSH1 0x0 PUSH2 0xD66 DUP5 DUP3 DUP6 ADD PUSH2 0x994 JUMP JUMPDEST SWAP2 POP POP SWAP3 SWAP2 POP POP JUMP JUMPDEST PUSH1 0x0 PUSH1 0x60 DUP3 ADD SWAP1 POP PUSH2 0xD84 PUSH1 0x0 DUP4 ADD DUP7 PUSH2 0xB4D JUMP JUMPDEST PUSH2 0xD91 PUSH1 0x20 DUP4 ADD DUP6 PUSH2 0xB4D JUMP JUMPDEST PUSH2 0xD9E PUSH1 0x40 DUP4 ADD DUP5 PUSH2 0xB23 JUMP JUMPDEST SWAP5 SWAP4 POP POP POP POP JUMP JUMPDEST PUSH1 0x0 DUP2 ISZERO ISZERO SWAP1 POP SWAP2 SWAP1 POP JUMP JUMPDEST PUSH2 0xDBB DUP2 PUSH2 0xDA6 JUMP JUMPDEST DUP2 EQ PUSH2 0xDC6 JUMPI PUSH1 0x0 DUP1 REVERT JUMPDEST POP JUMP JUMPDEST PUSH1 0x0 DUP2 MLOAD SWAP1 POP PUSH2 0xDD8 DUP2 PUSH2 0xDB2 JUMP JUMPDEST SWAP3 SWAP2 POP POP JUMP JUMPDEST PUSH1 0x0 PUSH1 0x20 DUP3 DUP5 SUB SLT ISZERO PUSH2 0xDF4 JUMPI PUSH2 0xDF3 PUSH2 0x8A6 JUMP JUMPDEST JUMPDEST PUSH1 0x0 PUSH2 0xE02 DUP5 DUP3 DUP6 ADD PUSH2 0xDC9 JUMP JUMPDEST SWAP2 POP POP SWAP3 SWAP2 POP POP JUMP JUMPDEST PUSH32 0x5472616E73666572206F6620746F6B656E496E206661696C6564000000000000 PUSH1 0x0 DUP3 ADD MSTORE POP JUMP JUMPDEST PUSH1 0x0 PUSH2 0xE41 PUSH1 0x1A DUP4 PUSH2 0xC04 JUMP JUMPDEST SWAP2 POP PUSH2 0xE4C DUP3 PUSH2 0xE0B JUMP JUMPDEST PUSH1 0x20 DUP3 ADD SWAP1 POP SWAP2 SWAP1 POP JUMP JUMPDEST PUSH1 0x0 PUSH1 0x20 DUP3 ADD SWAP1 POP DUP2 DUP2 SUB PUSH1 0x0 DUP4 ADD MSTORE PUSH2 0xE70 DUP2 PUSH2 0xE34 JUMP JUMPDEST SWAP1 POP SWAP2 SWAP1 POP JUMP JUMPDEST PUSH32 0x4E487B7100000000000000000000000000000000000000000000000000000000 PUSH1 0x0 MSTORE PUSH1 0x11 PUSH1 0x4 MSTORE PUSH1 0x24 PUSH1 0x0 REVERT JUMPDEST PUSH1 0x0 PUSH2 0xEB1 DUP3 PUSH2 0x8B0 JUMP JUMPDEST SWAP2 POP PUSH2 0xEBC DUP4 PUSH2 0x8B0 JUMP JUMPDEST SWAP3 POP DUP3 DUP3 MUL PUSH2 0xECA DUP2 PUSH2 0x8B0 JUMP JUMPDEST SWAP2 POP DUP3 DUP3 DIV DUP5 EQ DUP4 ISZERO OR PUSH2 0xEE1 JUMPI PUSH2 0xEE0 PUSH2 0xE77 JUMP JUMPDEST JUMPDEST POP SWAP3 SWAP2 POP POP JUMP JUMPDEST PUSH32 0x556E69737761705632526F757465723A20494E53554646494349454E545F4F55 PUSH1 0x0 DUP3 ADD MSTORE PUSH32 0x545055545F414D4F554E54000000000000000000000000000000000000000000 PUSH1 0x20 DUP3 ADD MSTORE POP JUMP JUMPDEST PUSH1 0x0 PUSH2 0xF44 PUSH1 0x2B DUP4 PUSH2 0xC04 JUMP JUMPDEST SWAP2 POP PUSH2 0xF4F DUP3 PUSH2 0xEE8 JUMP JUMPDEST PUSH1 0x40 DUP3 ADD SWAP1 POP SWAP2 SWAP1 POP JUMP JUMPDEST PUSH1 0x0 PUSH1 0x20 DUP3 ADD SWAP1 POP DUP2 DUP2 SUB PUSH1 0x0 DUP4 ADD MSTORE PUSH2 0xF73 DUP2 PUSH2 0xF37 JUMP JUMPDEST SWAP1 POP SWAP2 SWAP1 POP JUMP JUMPDEST PUSH1 0x0 PUSH1 0x40 DUP3 ADD SWAP1 POP PUSH2 0xF8F PUSH1 0x0 DUP4 ADD DUP6 PUSH2 0xB4D JUMP JUMPDEST PUSH2 0xF9C PUSH1 0x20 DUP4 ADD DUP5 PUSH2 0xB23 JUMP JUMPDEST SWAP4 SWAP3 POP POP POP JUMP JUMPDEST PUSH32 0x5472616E73666572206F6620746F6B656E4F7574206661696C65640000000000 PUSH1 0x0 DUP3 ADD MSTORE POP JUMP JUMPDEST PUSH1 0x0 PUSH2 0xFD9 PUSH1 0x1B DUP4 PUSH2 0xC04 JUMP JUMPDEST SWAP2 POP PUSH2 0xFE4 DUP3 PUSH2 0xFA3 JUMP JUMPDEST PUSH1 0x20 DUP3 ADD SWAP1 POP SWAP2 SWAP1 POP JUMP JUMPDEST PUSH1 0x0 PUSH1 0x20 DUP3 ADD SWAP1 POP DUP2 DUP2 SUB PUSH1 0x0 DUP4 ADD MSTORE PUSH2 0x1008 DUP2 PUSH2 0xFCC JUMP JUMPDEST SWAP1 POP SWAP2 SWAP1 POP JUMP JUMPDEST PUSH32 0x4E487B7100000000000000000000000000000000000000000000000000000000 PUSH1 0x0 MSTORE PUSH1 0x41 PUSH1 0x4 MSTORE PUSH1 0x24 PUSH1 0x0 REVERT INVALID LOG2 PUSH5 0x6970667358 0x22 SLT KECCAK256 BALANCE SWAP6 SWAP4 0x22 DUP10 0xFC COINBASE 0xDE EXP 0xC2 LOG1 0x1F 0x2A 0xFC JUMP DUP11 0xB7 0xEA 0xD6 0x2C PUSH12 0xCFBE5185DF0803F083B0B264 PUSH20 0x6F6C634300081B00330000000000000000000000 "},"methodIdentifiers":{"DAI()":"e0bab4c4","WETH()":"ad5c4648","exchangeRate()":"3ba0b9a9","getAmountsOut(uint256,address[])":"d06ca61f","setExchangeRate(uint256)":"db068e0e","swapExactTokensForTokens(uint256,uint256,address[],address,uint256)":"38ed1739"}}}}}