{
  "_format": "hh-sol-artifact-1",
  "contractName": "MockUniswapRouter",
  "sourceName": "contracts/MockUniswapRouter.sol",
  "abi": [
    {
      "inputs": [
        {
          "internalType": "uint256",
          "name": "amountIn",
          "type": "uint256"
        },
        {
          "internalType": "address[]",
          "name": "path",
          "type": "address[]"
        }
      ],
      "name": "getAmountsOut",
      "outputs": [
        {
          "internalType": "uint256[]",
          "name": "amounts",
          "type": "uint256[]"
        }
      ],
      "stateMutability": "pure",
      "type": "function"
    }
  ],
  "bytecode": "0x6080604052348015600f57600080fd5b506103ef8061001f6000396000f3fe608060405234801561001057600080fd5b506004361061002b5760003560e01c8063d06ca61f14610030575b600080fd5b61004a600480360381019061004591906101aa565b610060565b60405161005791906102c8565b60405180910390f35b60608282905067ffffffffffffffff81111561007f5761007e6102ea565b5b6040519080825280602002602001820160405280156100ad5781602001602082028036833780820191505090505b50905083816000815181106100c5576100c4610319565b5b6020026020010181815250506002846100de9190610377565b816001815181106100f2576100f1610319565b5b6020026020010181815250509392505050565b600080fd5b600080fd5b6000819050919050565b6101228161010f565b811461012d57600080fd5b50565b60008135905061013f81610119565b92915050565b600080fd5b600080fd5b600080fd5b60008083601f84011261016a57610169610145565b5b8235905067ffffffffffffffff8111156101875761018661014a565b5b6020830191508360208202830111156101a3576101a261014f565b5b9250929050565b6000806000604084860312156101c3576101c2610105565b5b60006101d186828701610130565b935050602084013567ffffffffffffffff8111156101f2576101f161010a565b5b6101fe86828701610154565b92509250509250925092565b600081519050919050565b600082825260208201905092915050565b6000819050602082019050919050565b61023f8161010f565b82525050565b60006102518383610236565b60208301905092915050565b6000602082019050919050565b60006102758261020a565b61027f8185610215565b935061028a83610226565b8060005b838110156102bb5781516102a28882610245565b97506102ad8361025d565b92505060018101905061028e565b5085935050505092915050565b600060208201905081810360008301526102e2818461026a565b905092915050565b7f4e487b7100000000000000000000000000000000000000000000000000000000600052604160045260246000fd5b7f4e487b7100000000000000000000000000000000000000000000000000000000600052603260045260246000fd5b7f4e487b7100000000000000000000000000000000000000000000000000000000600052601160045260246000fd5b60006103828261010f565b915061038d8361010f565b925082820261039b8161010f565b915082820484148315176103b2576103b1610348565b5b509291505056fea2646970667358221220884cbec08bf71a999639af1bbd6351a8ba7e86309b8aefd335509c546520024264736f6c634300081b0033",
  "linkReferences": {},
  "deployedLinkReferences": {}
}