{
  "_format": "hh-sol-artifact-1",
  "contractName": "MockUniswapRouter",
  "sourceName": "contracts/MockUniswapRouter.sol",
  "abi": [
    {
      "inputs": [
        {
          "internalType": "address",
          "name": "weth",
          "type": "address"
        },
        {
          "internalType": "address",
          "name": "dai",
          "type": "address"
        }
      ],
      "stateMutability": "nonpayable",
      "type": "constructor"
    },
    {
      "inputs": [],
      "name": "DAI",
      "outputs": [
        {
          "internalType": "address",
          "name": "",
          "type": "address"
        }
      ],
      "stateMutability": "view",
      "type": "function"
    },
    {
      "inputs": [],
      "name": "WETH",
      "outputs": [
        {
          "internalType": "address",
          "name": "",
          "type": "address"
        }
      ],
      "stateMutability": "view",
      "type": "function"
    },
    {
      "inputs": [
        {
          "internalType": "uint256",
          "name": "amountIn",
          "type": "uint256"
        },
        {
          "internalType": "address[]",
          "name": "path",
          "type": "address[]"
        }
      ],
      "name": "getAmountsOut",
      "outputs": [
        {
          "internalType": "uint256[]",
          "name": "amounts",
          "type": "uint256[]"
        }
      ],
      "stateMutability": "pure",
      "type": "function"
    },
    {
      "inputs": [
        {
          "internalType": "uint256",
          "name": "amountIn",
          "type": "uint256"
        },
        {
          "internalType": "uint256",
          "name": "amountOutMin",
          "type": "uint256"
        },
        {
          "internalType": "address[]",
          "name": "path",
          "type": "address[]"
        },
        {
          "internalType": "address",
          "name": "to",
          "type": "address"
        },
        {
          "internalType": "uint256",
          "name": "deadline",
          "type": "uint256"
        }
      ],
      "name": "swapExactTokensForTokens",
      "outputs": [
        {
          "internalType": "uint256[]",
          "name": "amounts",
          "type": "uint256[]"
        }
      ],
      "stateMutability": "nonpayable",
      "type": "function"
    }
  ],
  "bytecode": "0x608060405234801561001057600080fd5b50604051610e29380380610e298339818101604052810190610032919061011d565b816000806101000a81548173ffffffffffffffffffffffffffffffffffffffff021916908373ffffffffffffffffffffffffffffffffffffffff16021790555080600160006101000a81548173ffffffffffffffffffffffffffffffffffffffff021916908373ffffffffffffffffffffffffffffffffffffffff160217905550505061015d565b600080fd5b600073ffffffffffffffffffffffffffffffffffffffff82169050919050565b60006100ea826100bf565b9050919050565b6100fa816100df565b811461010557600080fd5b50565b600081519050610117816100f1565b92915050565b60008060408385031215610134576101336100ba565b5b600061014285828601610108565b925050602061015385828601610108565b9150509250929050565b610cbd8061016c6000396000f3fe608060405234801561001057600080fd5b506004361061004c5760003560e01c806338ed173914610051578063ad5c464814610081578063d06ca61f1461009f578063e0bab4c4146100cf575b600080fd5b61006b6004803603810190610066919061063a565b6100ed565b6040516100789190610792565b60405180910390f35b610089610448565b60405161009691906107c3565b60405180910390f35b6100b960048036038101906100b491906107de565b61046c565b6040516100c69190610792565b60405180910390f35b6100d7610511565b6040516100e491906107c3565b60405180910390f35b606042821015610132576040517f08c379a00000000000000000000000000000000000000000000000000000000081526004016101299061089b565b60405180910390fd5b60028585905014610178576040517f08c379a000000000000000000000000000000000000000000000000000000000815260040161016f9061092d565b60405180910390fd5b60008585600081811061018e5761018d61094d565b5b90506020020160208101906101a3919061097c565b90506000868660018181106101bb576101ba61094d565b5b90506020020160208101906101d0919061097c565b905060008273ffffffffffffffffffffffffffffffffffffffff166323b872dd33308d6040518463ffffffff1660e01b8152600401610211939291906109b8565b6020604051808303816000875af1158015610230573d6000803e3d6000fd5b505050506040513d601f19601f820116820180604052508101906102549190610a27565b905080610296576040517f08c379a000000000000000000000000000000000000000000000000000000000815260040161028d90610aa0565b60405180910390fd5b600060028b6102a59190610aef565b9050898110156102ea576040517f08c379a00000000000000000000000000000000000000000000000000000000081526004016102e190610ba3565b60405180910390fd5b8273ffffffffffffffffffffffffffffffffffffffff1663a9059cbb88836040518363ffffffff1660e01b8152600401610325929190610bc3565b6020604051808303816000875af1158015610344573d6000803e3d6000fd5b505050506040513d601f19601f820116820180604052508101906103689190610a27565b9150816103aa576040517f08c379a00000000000000000000000000000000000000000000000000000000081526004016103a190610c38565b60405180910390fd5b8888905067ffffffffffffffff8111156103c7576103c6610c58565b5b6040519080825280602002602001820160405280156103f55781602001602082028036833780820191505090505b5094508a8560008151811061040d5761040c61094d565b5b602002602001018181525050808560018151811061042e5761042d61094d565b5b602002602001018181525050505050509695505050505050565b60008054906101000a900473ffffffffffffffffffffffffffffffffffffffff1681565b60608282905067ffffffffffffffff81111561048b5761048a610c58565b5b6040519080825280602002602001820160405280156104b95781602001602082028036833780820191505090505b50905083816000815181106104d1576104d061094d565b5b6020026020010181815250506002846104ea9190610aef565b816001815181106104fe576104fd61094d565b5b6020026020010181815250509392505050565b600160009054906101000a900473ffffffffffffffffffffffffffffffffffffffff1681565b600080fd5b600080fd5b6000819050919050565b61055481610541565b811461055f57600080fd5b50565b6000813590506105718161054b565b92915050565b600080fd5b600080fd5b600080fd5b60008083601f84011261059c5761059b610577565b5b8235905067ffffffffffffffff8111156105b9576105b861057c565b5b6020830191508360208202830111156105d5576105d4610581565b5b9250929050565b600073ffffffffffffffffffffffffffffffffffffffff82169050919050565b6000610607826105dc565b9050919050565b610617816105fc565b811461062257600080fd5b50565b6000813590506106348161060e565b92915050565b60008060008060008060a0878903121561065757610656610537565b5b600061066589828a01610562565b965050602061067689828a01610562565b955050604087013567ffffffffffffffff8111156106975761069661053c565b5b6106a389828a01610586565b945094505060606106b689828a01610625565b92505060806106c789828a01610562565b9150509295509295509295565b600081519050919050565b600082825260208201905092915050565b6000819050602082019050919050565b61070981610541565b82525050565b600061071b8383610700565b60208301905092915050565b6000602082019050919050565b600061073f826106d4565b61074981856106df565b9350610754836106f0565b8060005b8381101561078557815161076c888261070f565b975061077783610727565b925050600181019050610758565b5085935050505092915050565b600060208201905081810360008301526107ac8184610734565b905092915050565b6107bd816105fc565b82525050565b60006020820190506107d860008301846107b4565b92915050565b6000806000604084860312156107f7576107f6610537565b5b600061080586828701610562565b935050602084013567ffffffffffffffff8111156108265761082561053c565b5b61083286828701610586565b92509250509250925092565b600082825260208201905092915050565b7f5472616e73616374696f6e206578706972656400000000000000000000000000600082015250565b600061088560138361083e565b91506108908261084f565b602082019050919050565b600060208201905081810360008301526108b481610878565b9050919050565b7f4f6e6c792074776f2d746f6b656e2073776170732061726520737570706f727460008201527f6564000000000000000000000000000000000000000000000000000000000000602082015250565b600061091760228361083e565b9150610922826108bb565b604082019050919050565b600060208201905081810360008301526109468161090a565b9050919050565b7f4e487b7100000000000000000000000000000000000000000000000000000000600052603260045260246000fd5b60006020828403121561099257610991610537565b5b60006109a084828501610625565b91505092915050565b6109b281610541565b82525050565b60006060820190506109cd60008301866107b4565b6109da60208301856107b4565b6109e760408301846109a9565b949350505050565b60008115159050919050565b610a04816109ef565b8114610a0f57600080fd5b50565b600081519050610a21816109fb565b92915050565b600060208284031215610a3d57610a3c610537565b5b6000610a4b84828501610a12565b91505092915050565b7f5472616e73666572206f6620746f6b656e496e206661696c6564000000000000600082015250565b6000610a8a601a8361083e565b9150610a9582610a54565b602082019050919050565b60006020820190508181036000830152610ab981610a7d565b9050919050565b7f4e487b7100000000000000000000000000000000000000000000000000000000600052601160045260246000fd5b6000610afa82610541565b9150610b0583610541565b9250828202610b1381610541565b91508282048414831517610b2a57610b29610ac0565b5b5092915050565b7f556e69737761705632526f757465723a20494e53554646494349454e545f4f5560008201527f545055545f414d4f554e54000000000000000000000000000000000000000000602082015250565b6000610b8d602b8361083e565b9150610b9882610b31565b604082019050919050565b60006020820190508181036000830152610bbc81610b80565b9050919050565b6000604082019050610bd860008301856107b4565b610be560208301846109a9565b9392505050565b7f5472616e73666572206f6620746f6b656e4f7574206661696c65640000000000600082015250565b6000610c22601b8361083e565b9150610c2d82610bec565b602082019050919050565b60006020820190508181036000830152610c5181610c15565b9050919050565b7f4e487b7100000000000000000000000000000000000000000000000000000000600052604160045260246000fdfea264697066735822122072200f386d70026afbac01b74ab483ab9bf79964fb76acd2ece486823a48972e64736f6c634300081b0033",
  "linkReferences": {},
  "deployedLinkReferences": {}
}