{
  "_format": "hh-sol-artifact-1",
  "contractName": "MockUniswapRouter",
  "sourceName": "contracts/MockUniswapRouter.sol",
  "abi": [
    {
      "inputs": [
        {
          "internalType": "address",
          "name": "weth",
          "type": "address"
        },
        {
          "internalType": "address",
          "name": "dai",
          "type": "address"
        },
        {
          "internalType": "uint256",
          "name": "initalExchagneRate",
          "type": "uint256"
        }
      ],
      "stateMutability": "nonpayable",
      "type": "constructor"
    },
    {
      "inputs": [],
      "name": "DAI",
      "outputs": [
        {
          "internalType": "address",
          "name": "",
          "type": "address"
        }
      ],
      "stateMutability": "view",
      "type": "function"
    },
    {
      "inputs": [],
      "name": "WETH",
      "outputs": [
        {
          "internalType": "address",
          "name": "",
          "type": "address"
        }
      ],
      "stateMutability": "view",
      "type": "function"
    },
    {
      "inputs": [],
      "name": "exchangeRate",
      "outputs": [
        {
          "internalType": "uint256",
          "name": "",
          "type": "uint256"
        }
      ],
      "stateMutability": "view",
      "type": "function"
    },
    {
      "inputs": [],
      "name": "feeRate",
      "outputs": [
        {
          "internalType": "uint256",
          "name": "",
          "type": "uint256"
        }
      ],
      "stateMutability": "view",
      "type": "function"
    },
    {
      "inputs": [
        {
          "internalType": "uint256",
          "name": "amount",
          "type": "uint256"
        }
      ],
      "name": "getAmountAfterFee",
      "outputs": [
        {
          "internalType": "uint256",
          "name": "",
          "type": "uint256"
        }
      ],
      "stateMutability": "nonpayable",
      "type": "function"
    },
    {
      "inputs": [
        {
          "internalType": "uint256",
          "name": "initalExchagneRate",
          "type": "uint256"
        }
      ],
      "name": "setExchangeRate",
      "outputs": [],
      "stateMutability": "nonpayable",
      "type": "function"
    },
    {
      "inputs": [
        {
          "internalType": "uint256",
          "name": "newFeeRate",
          "type": "uint256"
        }
      ],
      "name": "setFee",
      "outputs": [],
      "stateMutability": "nonpayable",
      "type": "function"
    },
    {
      "inputs": [
        {
          "internalType": "uint256",
          "name": "amountIn",
          "type": "uint256"
        },
        {
          "internalType": "uint256",
          "name": "amountOutMin",
          "type": "uint256"
        },
        {
          "internalType": "address[]",
          "name": "path",
          "type": "address[]"
        },
        {
          "internalType": "address",
          "name": "to",
          "type": "address"
        },
        {
          "internalType": "uint256",
          "name": "deadline",
          "type": "uint256"
        }
      ],
      "name": "swapExactTokensForTokens",
      "outputs": [
        {
          "internalType": "uint256[]",
          "name": "amounts",
          "type": "uint256[]"
        }
      ],
      "stateMutability": "nonpayable",
      "type": "function"
    }
  ],
  "bytecode": "0x6080604052601e60035534801561001557600080fd5b50604051610f66380380610f6683398181016040528101906100379190610160565b826000806101000a81548173ffffffffffffffffffffffffffffffffffffffff021916908373ffffffffffffffffffffffffffffffffffffffff16021790555081600160006101000a81548173ffffffffffffffffffffffffffffffffffffffff021916908373ffffffffffffffffffffffffffffffffffffffff160217905550806002819055505050506101b3565b600080fd5b600073ffffffffffffffffffffffffffffffffffffffff82169050919050565b60006100f7826100cc565b9050919050565b610107816100ec565b811461011257600080fd5b50565b600081519050610124816100fe565b92915050565b6000819050919050565b61013d8161012a565b811461014857600080fd5b50565b60008151905061015a81610134565b92915050565b600080600060608486031215610179576101786100c7565b5b600061018786828701610115565b935050602061019886828701610115565b92505060406101a98682870161014b565b9150509250925092565b610da4806101c26000396000f3fe608060405234801561001057600080fd5b50600436106100885760003560e01c8063978bbdb91161005b578063978bbdb914610127578063ad5c464814610145578063db068e0e14610163578063e0bab4c41461017f57610088565b80631fc6a5db1461008d57806338ed1739146100bd5780633ba0b9a9146100ed57806369fe0e2d1461010b575b600080fd5b6100a760048036038101906100a291906105e2565b61019d565b6040516100b4919061061e565b60405180910390f35b6100d760048036038101906100d291906106fc565b6101ce565b6040516100e49190610854565b60405180910390f35b6100f5610538565b604051610102919061061e565b60405180910390f35b610125600480360381019061012091906105e2565b61053e565b005b61012f610548565b60405161013c919061061e565b60405180910390f35b61014d61054e565b60405161015a9190610885565b60405180910390f35b61017d600480360381019061017891906105e2565b610572565b005b61018761057c565b6040516101949190610885565b60405180910390f35b60006127106003546127106101b291906108cf565b836101bd9190610903565b6101c79190610974565b9050919050565b606042821015610213576040517f08c379a000000000000000000000000000000000000000000000000000000000815260040161020a90610a02565b60405180910390fd5b60028585905014610259576040517f08c379a000000000000000000000000000000000000000000000000000000000815260040161025090610a94565b60405180910390fd5b60008585600081811061026f5761026e610ab4565b5b90506020020160208101906102849190610ae3565b905060008686600181811061029c5761029b610ab4565b5b90506020020160208101906102b19190610ae3565b905060008273ffffffffffffffffffffffffffffffffffffffff166323b872dd33308d6040518463ffffffff1660e01b81526004016102f293929190610b10565b6020604051808303816000875af1158015610311573d6000803e3d6000fd5b505050506040513d601f19601f820116820180604052508101906103359190610b7f565b905080610377576040517f08c379a000000000000000000000000000000000000000000000000000000000815260040161036e90610bf8565b60405180910390fd5b60006103828b61019d565b90506000600254826103949190610903565b90508a8110156103d9576040517f08c379a00000000000000000000000000000000000000000000000000000000081526004016103d090610c8a565b60405180910390fd5b8373ffffffffffffffffffffffffffffffffffffffff1663a9059cbb89836040518363ffffffff1660e01b8152600401610414929190610caa565b6020604051808303816000875af1158015610433573d6000803e3d6000fd5b505050506040513d601f19601f820116820180604052508101906104579190610b7f565b925082610499576040517f08c379a000000000000000000000000000000000000000000000000000000000815260040161049090610d1f565b60405180910390fd5b8989905067ffffffffffffffff8111156104b6576104b5610d3f565b5b6040519080825280602002602001820160405280156104e45781602001602082028036833780820191505090505b5095508b866000815181106104fc576104fb610ab4565b5b602002602001018181525050808660018151811061051d5761051c610ab4565b5b60200260200101818152505050505050509695505050505050565b60025481565b8060038190555050565b60035481565b60008054906101000a900473ffffffffffffffffffffffffffffffffffffffff1681565b8060028190555050565b600160009054906101000a900473ffffffffffffffffffffffffffffffffffffffff1681565b600080fd5b600080fd5b6000819050919050565b6105bf816105ac565b81146105ca57600080fd5b50565b6000813590506105dc816105b6565b92915050565b6000602082840312156105f8576105f76105a2565b5b6000610606848285016105cd565b91505092915050565b610618816105ac565b82525050565b6000602082019050610633600083018461060f565b92915050565b600080fd5b600080fd5b600080fd5b60008083601f84011261065e5761065d610639565b5b8235905067ffffffffffffffff81111561067b5761067a61063e565b5b60208301915083602082028301111561069757610696610643565b5b9250929050565b600073ffffffffffffffffffffffffffffffffffffffff82169050919050565b60006106c98261069e565b9050919050565b6106d9816106be565b81146106e457600080fd5b50565b6000813590506106f6816106d0565b92915050565b60008060008060008060a08789031215610719576107186105a2565b5b600061072789828a016105cd565b965050602061073889828a016105cd565b955050604087013567ffffffffffffffff811115610759576107586105a7565b5b61076589828a01610648565b9450945050606061077889828a016106e7565b925050608061078989828a016105cd565b9150509295509295509295565b600081519050919050565b600082825260208201905092915050565b6000819050602082019050919050565b6107cb816105ac565b82525050565b60006107dd83836107c2565b60208301905092915050565b6000602082019050919050565b600061080182610796565b61080b81856107a1565b9350610816836107b2565b8060005b8381101561084757815161082e88826107d1565b9750610839836107e9565b92505060018101905061081a565b5085935050505092915050565b6000602082019050818103600083015261086e81846107f6565b905092915050565b61087f816106be565b82525050565b600060208201905061089a6000830184610876565b92915050565b7f4e487b7100000000000000000000000000000000000000000000000000000000600052601160045260246000fd5b60006108da826105ac565b91506108e5836105ac565b92508282039050818111156108fd576108fc6108a0565b5b92915050565b600061090e826105ac565b9150610919836105ac565b9250828202610927816105ac565b9150828204841483151761093e5761093d6108a0565b5b5092915050565b7f4e487b7100000000000000000000000000000000000000000000000000000000600052601260045260246000fd5b600061097f826105ac565b915061098a836105ac565b92508261099a57610999610945565b5b828204905092915050565b600082825260208201905092915050565b7f5472616e73616374696f6e206578706972656400000000000000000000000000600082015250565b60006109ec6013836109a5565b91506109f7826109b6565b602082019050919050565b60006020820190508181036000830152610a1b816109df565b9050919050565b7f4f6e6c792074776f2d746f6b656e2073776170732061726520737570706f727460008201527f6564000000000000000000000000000000000000000000000000000000000000602082015250565b6000610a7e6022836109a5565b9150610a8982610a22565b604082019050919050565b60006020820190508181036000830152610aad81610a71565b9050919050565b7f4e487b7100000000000000000000000000000000000000000000000000000000600052603260045260246000fd5b600060208284031215610af957610af86105a2565b5b6000610b07848285016106e7565b91505092915050565b6000606082019050610b256000830186610876565b610b326020830185610876565b610b3f604083018461060f565b949350505050565b60008115159050919050565b610b5c81610b47565b8114610b6757600080fd5b50565b600081519050610b7981610b53565b92915050565b600060208284031215610b9557610b946105a2565b5b6000610ba384828501610b6a565b91505092915050565b7f5472616e73666572206f6620746f6b656e496e206661696c6564000000000000600082015250565b6000610be2601a836109a5565b9150610bed82610bac565b602082019050919050565b60006020820190508181036000830152610c1181610bd5565b9050919050565b7f556e69737761705632526f757465723a20494e53554646494349454e545f4f5560008201527f545055545f414d4f554e54000000000000000000000000000000000000000000602082015250565b6000610c74602b836109a5565b9150610c7f82610c18565b604082019050919050565b60006020820190508181036000830152610ca381610c67565b9050919050565b6000604082019050610cbf6000830185610876565b610ccc602083018461060f565b9392505050565b7f5472616e73666572206f6620746f6b656e4f7574206661696c65640000000000600082015250565b6000610d09601b836109a5565b9150610d1482610cd3565b602082019050919050565b60006020820190508181036000830152610d3881610cfc565b9050919050565b7f4e487b7100000000000000000000000000000000000000000000000000000000600052604160045260246000fdfea2646970667358221220aa198d1c95b03c76ae2662ba52a07e34059d1b15a9e93895f57a038a292bbd7a64736f6c634300081b0033",
  "linkReferences": {},
  "deployedLinkReferences": {}
}