{
  "_format": "hh-sol-artifact-1",
  "contractName": "MockUniswapRouter",
  "sourceName": "contracts/MockUniswapRouter.sol",
  "abi": [
    {
      "inputs": [
        {
          "internalType": "address",
          "name": "weth",
          "type": "address"
        },
        {
          "internalType": "address",
          "name": "dai",
          "type": "address"
        },
        {
          "internalType": "uint256",
          "name": "initalExchagneRate",
          "type": "uint256"
        }
      ],
      "stateMutability": "nonpayable",
      "type": "constructor"
    },
    {
      "inputs": [],
      "name": "DAI",
      "outputs": [
        {
          "internalType": "address",
          "name": "",
          "type": "address"
        }
      ],
      "stateMutability": "view",
      "type": "function"
    },
    {
      "inputs": [],
      "name": "WETH",
      "outputs": [
        {
          "internalType": "address",
          "name": "",
          "type": "address"
        }
      ],
      "stateMutability": "view",
      "type": "function"
    },
    {
      "inputs": [],
      "name": "exchangeRate",
      "outputs": [
        {
          "internalType": "uint256",
          "name": "",
          "type": "uint256"
        }
      ],
      "stateMutability": "view",
      "type": "function"
    },
    {
      "inputs": [],
      "name": "feeRate",
      "outputs": [
        {
          "internalType": "uint256",
          "name": "",
          "type": "uint256"
        }
      ],
      "stateMutability": "view",
      "type": "function"
    },
    {
      "inputs": [
        {
          "internalType": "uint256",
          "name": "amount",
          "type": "uint256"
        }
      ],
      "name": "getAmountAfterFee",
      "outputs": [
        {
          "internalType": "uint256",
          "name": "",
          "type": "uint256"
        }
      ],
      "stateMutability": "nonpayable",
      "type": "function"
    },
    {
      "inputs": [
        {
          "internalType": "uint256",
          "name": "initalExchagneRate",
          "type": "uint256"
        }
      ],
      "name": "setExchangeRate",
      "outputs": [],
      "stateMutability": "nonpayable",
      "type": "function"
    },
    {
      "inputs": [
        {
          "internalType": "uint256",
          "name": "newFeeRate",
          "type": "uint256"
        }
      ],
      "name": "setFee",
      "outputs": [],
      "stateMutability": "nonpayable",
      "type": "function"
    },
    {
      "inputs": [
        {
          "internalType": "uint256",
          "name": "amountIn",
          "type": "uint256"
        },
        {
          "internalType": "uint256",
          "name": "amountOutMin",
          "type": "uint256"
        },
        {
          "internalType": "address[]",
          "name": "path",
          "type": "address[]"
        },
        {
          "internalType": "address",
          "name": "to",
          "type": "address"
        },
        {
          "internalType": "uint256",
          "name": "deadline",
          "type": "uint256"
        }
      ],
      "name": "swapExactTokensForTokens",
      "outputs": [
        {
          "internalType": "uint256[]",
          "name": "amounts",
          "type": "uint256[]"
        }
      ],
      "stateMutability": "nonpayable",
      "type": "function"
    }
  ],
  "bytecode": "0x6080604052601e60035534801561001557600080fd5b50604051610f73380380610f7383398181016040528101906100379190610160565b826000806101000a81548173ffffffffffffffffffffffffffffffffffffffff021916908373ffffffffffffffffffffffffffffffffffffffff16021790555081600160006101000a81548173ffffffffffffffffffffffffffffffffffffffff021916908373ffffffffffffffffffffffffffffffffffffffff160217905550806002819055505050506101b3565b600080fd5b600073ffffffffffffffffffffffffffffffffffffffff82169050919050565b60006100f7826100cc565b9050919050565b610107816100ec565b811461011257600080fd5b50565b600081519050610124816100fe565b92915050565b6000819050919050565b61013d8161012a565b811461014857600080fd5b50565b60008151905061015a81610134565b92915050565b600080600060608486031215610179576101786100c7565b5b600061018786828701610115565b935050602061019886828701610115565b92505060406101a98682870161014b565b9150509250925092565b610db1806101c26000396000f3fe608060405234801561001057600080fd5b50600436106100885760003560e01c8063978bbdb91161005b578063978bbdb914610127578063ad5c464814610145578063db068e0e14610163578063e0bab4c41461017f57610088565b80631fc6a5db1461008d57806338ed1739146100bd5780633ba0b9a9146100ed57806369fe0e2d1461010b575b600080fd5b6100a760048036038101906100a291906105ef565b61019d565b6040516100b4919061062b565b60405180910390f35b6100d760048036038101906100d29190610709565b6101db565b6040516100e49190610861565b60405180910390f35b6100f5610545565b604051610102919061062b565b60405180910390f35b610125600480360381019061012091906105ef565b61054b565b005b61012f610555565b60405161013c919061062b565b60405180910390f35b61014d61055b565b60405161015a9190610892565b60405180910390f35b61017d600480360381019061017891906105ef565b61057f565b005b610187610589565b6040516101949190610892565b60405180910390f35b60006127106003546127106101b291906108dc565b600254846101c09190610910565b6101ca9190610910565b6101d49190610981565b9050919050565b606042821015610220576040517f08c379a000000000000000000000000000000000000000000000000000000000815260040161021790610a0f565b60405180910390fd5b60028585905014610266576040517f08c379a000000000000000000000000000000000000000000000000000000000815260040161025d90610aa1565b60405180910390fd5b60008585600081811061027c5761027b610ac1565b5b90506020020160208101906102919190610af0565b90506000868660018181106102a9576102a8610ac1565b5b90506020020160208101906102be9190610af0565b905060008273ffffffffffffffffffffffffffffffffffffffff166323b872dd33308d6040518463ffffffff1660e01b81526004016102ff93929190610b1d565b6020604051808303816000875af115801561031e573d6000803e3d6000fd5b505050506040513d601f19601f820116820180604052508101906103429190610b8c565b905080610384576040517f08c379a000000000000000000000000000000000000000000000000000000000815260040161037b90610c05565b60405180910390fd5b600061038f8b61019d565b90506000600254826103a19190610910565b90508a8110156103e6576040517f08c379a00000000000000000000000000000000000000000000000000000000081526004016103dd90610c97565b60405180910390fd5b8373ffffffffffffffffffffffffffffffffffffffff1663a9059cbb89836040518363ffffffff1660e01b8152600401610421929190610cb7565b6020604051808303816000875af1158015610440573d6000803e3d6000fd5b505050506040513d601f19601f820116820180604052508101906104649190610b8c565b9250826104a6576040517f08c379a000000000000000000000000000000000000000000000000000000000815260040161049d90610d2c565b60405180910390fd5b8989905067ffffffffffffffff8111156104c3576104c2610d4c565b5b6040519080825280602002602001820160405280156104f15781602001602082028036833780820191505090505b5095508b8660008151811061050957610508610ac1565b5b602002602001018181525050808660018151811061052a57610529610ac1565b5b60200260200101818152505050505050509695505050505050565b60025481565b8060038190555050565b60035481565b60008054906101000a900473ffffffffffffffffffffffffffffffffffffffff1681565b8060028190555050565b600160009054906101000a900473ffffffffffffffffffffffffffffffffffffffff1681565b600080fd5b600080fd5b6000819050919050565b6105cc816105b9565b81146105d757600080fd5b50565b6000813590506105e9816105c3565b92915050565b600060208284031215610605576106046105af565b5b6000610613848285016105da565b91505092915050565b610625816105b9565b82525050565b6000602082019050610640600083018461061c565b92915050565b600080fd5b600080fd5b600080fd5b60008083601f84011261066b5761066a610646565b5b8235905067ffffffffffffffff8111156106885761068761064b565b5b6020830191508360208202830111156106a4576106a3610650565b5b9250929050565b600073ffffffffffffffffffffffffffffffffffffffff82169050919050565b60006106d6826106ab565b9050919050565b6106e6816106cb565b81146106f157600080fd5b50565b600081359050610703816106dd565b92915050565b60008060008060008060a08789031215610726576107256105af565b5b600061073489828a016105da565b965050602061074589828a016105da565b955050604087013567ffffffffffffffff811115610766576107656105b4565b5b61077289828a01610655565b9450945050606061078589828a016106f4565b925050608061079689828a016105da565b9150509295509295509295565b600081519050919050565b600082825260208201905092915050565b6000819050602082019050919050565b6107d8816105b9565b82525050565b60006107ea83836107cf565b60208301905092915050565b6000602082019050919050565b600061080e826107a3565b61081881856107ae565b9350610823836107bf565b8060005b8381101561085457815161083b88826107de565b9750610846836107f6565b925050600181019050610827565b5085935050505092915050565b6000602082019050818103600083015261087b8184610803565b905092915050565b61088c816106cb565b82525050565b60006020820190506108a76000830184610883565b92915050565b7f4e487b7100000000000000000000000000000000000000000000000000000000600052601160045260246000fd5b60006108e7826105b9565b91506108f2836105b9565b925082820390508181111561090a576109096108ad565b5b92915050565b600061091b826105b9565b9150610926836105b9565b9250828202610934816105b9565b9150828204841483151761094b5761094a6108ad565b5b5092915050565b7f4e487b7100000000000000000000000000000000000000000000000000000000600052601260045260246000fd5b600061098c826105b9565b9150610997836105b9565b9250826109a7576109a6610952565b5b828204905092915050565b600082825260208201905092915050565b7f5472616e73616374696f6e206578706972656400000000000000000000000000600082015250565b60006109f96013836109b2565b9150610a04826109c3565b602082019050919050565b60006020820190508181036000830152610a28816109ec565b9050919050565b7f4f6e6c792074776f2d746f6b656e2073776170732061726520737570706f727460008201527f6564000000000000000000000000000000000000000000000000000000000000602082015250565b6000610a8b6022836109b2565b9150610a9682610a2f565b604082019050919050565b60006020820190508181036000830152610aba81610a7e565b9050919050565b7f4e487b7100000000000000000000000000000000000000000000000000000000600052603260045260246000fd5b600060208284031215610b0657610b056105af565b5b6000610b14848285016106f4565b91505092915050565b6000606082019050610b326000830186610883565b610b3f6020830185610883565b610b4c604083018461061c565b949350505050565b60008115159050919050565b610b6981610b54565b8114610b7457600080fd5b50565b600081519050610b8681610b60565b92915050565b600060208284031215610ba257610ba16105af565b5b6000610bb084828501610b77565b91505092915050565b7f5472616e73666572206f6620746f6b656e496e206661696c6564000000000000600082015250565b6000610bef601a836109b2565b9150610bfa82610bb9565b602082019050919050565b60006020820190508181036000830152610c1e81610be2565b9050919050565b7f556e69737761705632526f757465723a20494e53554646494349454e545f4f5560008201527f545055545f414d4f554e54000000000000000000000000000000000000000000602082015250565b6000610c81602b836109b2565b9150610c8c82610c25565b604082019050919050565b60006020820190508181036000830152610cb081610c74565b9050919050565b6000604082019050610ccc6000830185610883565b610cd9602083018461061c565b9392505050565b7f5472616e73666572206f6620746f6b656e4f7574206661696c65640000000000600082015250565b6000610d16601b836109b2565b9150610d2182610ce0565b602082019050919050565b60006020820190508181036000830152610d4581610d09565b9050919050565b7f4e487b7100000000000000000000000000000000000000000000000000000000600052604160045260246000fdfea2646970667358221220dd9a9eef508bdbc8116c3e2e668829a5937e1fd2d41948fa878c63e64562dbc764736f6c634300081b0033",
  "linkReferences": {},
  "deployedLinkReferences": {}
}