{
  "_format": "hh-sol-artifact-1",
  "contractName": "MockUniswapRouter",
  "sourceName": "contracts/MockUniswapRouter.sol",
  "abi": [
    {
      "inputs": [
        {
          "internalType": "address",
          "name": "weth",
          "type": "address"
        },
        {
          "internalType": "address",
          "name": "dai",
          "type": "address"
        },
        {
          "internalType": "uint256",
          "name": "initalExchagneRate",
          "type": "uint256"
        }
      ],
      "stateMutability": "nonpayable",
      "type": "constructor"
    },
    {
      "inputs": [],
      "name": "DAI",
      "outputs": [
        {
          "internalType": "address",
          "name": "",
          "type": "address"
        }
      ],
      "stateMutability": "view",
      "type": "function"
    },
    {
      "inputs": [],
      "name": "WETH",
      "outputs": [
        {
          "internalType": "address",
          "name": "",
          "type": "address"
        }
      ],
      "stateMutability": "view",
      "type": "function"
    },
    {
      "inputs": [],
      "name": "exchangeRate",
      "outputs": [
        {
          "internalType": "uint256",
          "name": "",
          "type": "uint256"
        }
      ],
      "stateMutability": "view",
      "type": "function"
    },
    {
      "inputs": [
        {
          "internalType": "uint256",
          "name": "amountIn",
          "type": "uint256"
        },
        {
          "internalType": "address[]",
          "name": "path",
          "type": "address[]"
        }
      ],
      "name": "getAmountsOut",
      "outputs": [
        {
          "internalType": "uint256[]",
          "name": "amounts",
          "type": "uint256[]"
        }
      ],
      "stateMutability": "pure",
      "type": "function"
    },
    {
      "inputs": [
        {
          "internalType": "uint256",
          "name": "initalExchagneRate",
          "type": "uint256"
        }
      ],
      "name": "setExchangeRate",
      "outputs": [],
      "stateMutability": "nonpayable",
      "type": "function"
    },
    {
      "inputs": [
        {
          "internalType": "uint256",
          "name": "amountIn",
          "type": "uint256"
        },
        {
          "internalType": "uint256",
          "name": "amountOutMin",
          "type": "uint256"
        },
        {
          "internalType": "address[]",
          "name": "path",
          "type": "address[]"
        },
        {
          "internalType": "address",
          "name": "to",
          "type": "address"
        },
        {
          "internalType": "uint256",
          "name": "deadline",
          "type": "uint256"
        }
      ],
      "name": "swapExactTokensForTokens",
      "outputs": [
        {
          "internalType": "uint256[]",
          "name": "amounts",
          "type": "uint256[]"
        }
      ],
      "stateMutability": "nonpayable",
      "type": "function"
    }
  ],
  "bytecode": "0x608060405234801561001057600080fd5b5060405161129c38038061129c833981810160405281019061003291906101c6565b61004c67c474a50d5e70350d60c01b61012a60201b60201c565b61006667b43f64e05d8868ba60c01b61012a60201b60201c565b826000806101000a81548173ffffffffffffffffffffffffffffffffffffffff021916908373ffffffffffffffffffffffffffffffffffffffff1602179055506100c0679b66bab474b237d560c01b61012a60201b60201c565b81600160006101000a81548173ffffffffffffffffffffffffffffffffffffffff021916908373ffffffffffffffffffffffffffffffffffffffff16021790555061011b67dbf426c08248a77360c01b61012a60201b60201c565b80600281905550505050610219565b50565b600080fd5b600073ffffffffffffffffffffffffffffffffffffffff82169050919050565b600061015d82610132565b9050919050565b61016d81610152565b811461017857600080fd5b50565b60008151905061018a81610164565b92915050565b6000819050919050565b6101a381610190565b81146101ae57600080fd5b50565b6000815190506101c08161019a565b92915050565b6000806000606084860312156101df576101de61012d565b5b60006101ed8682870161017b565b93505060206101fe8682870161017b565b925050604061020f868287016101b1565b9150509250925092565b611074806102286000396000f3fe608060405234801561001057600080fd5b50600436106100625760003560e01c806338ed1739146100675780633ba0b9a914610097578063ad5c4648146100b5578063d06ca61f146100d3578063db068e0e14610103578063e0bab4c41461011f575b600080fd5b610081600480360381019061007c91906109a9565b61013d565b60405161008e9190610b01565b60405180910390f35b61009f61072c565b6040516100ac9190610b32565b60405180910390f35b6100bd610732565b6040516100ca9190610b5c565b60405180910390f35b6100ed60048036038101906100e89190610b77565b610756565b6040516100fa9190610b01565b60405180910390f35b61011d60048036038101906101189190610bd7565b61084b565b005b61012761087d565b6040516101349190610b5c565b60405180910390f35b6060610153678bbaaf4d1888d8b960c01b6108a3565b61016767e9f6032e7694f8bb60c01b6108a3565b61017b671e8e5666a48f2b2060c01b6108a3565b61018f67112b3e61957b30ce60c01b6108a3565b428210156101d2576040517f08c379a00000000000000000000000000000000000000000000000000000000081526004016101c990610c61565b60405180910390fd5b6101e667f8a54653c2128c0360c01b6108a3565b6101fa676fda3bca0336d81460c01b6108a3565b61020e67d56c3d238b7f65e960c01b6108a3565b6102226710829173c73efb7360c01b6108a3565b60028585905014610268576040517f08c379a000000000000000000000000000000000000000000000000000000000815260040161025f90610cf3565b60405180910390fd5b61027c6733cbd5a425dc6dea60c01b6108a3565b610290675208cd8d09df0c0a60c01b6108a3565b6102a4671a491ba7f0b0b9df60c01b6108a3565b6000858560008181106102ba576102b9610d13565b5b90506020020160208101906102cf9190610d42565b90506102e567dd670205838908fb60c01b6108a3565b6102f967efdd33ae50bd15e760c01b6108a3565b60008686600181811061030f5761030e610d13565b5b90506020020160208101906103249190610d42565b905061033a672607c8c2e7b6309560c01b6108a3565b61034e6739fa91da3aa5656f60c01b6108a3565b60008273ffffffffffffffffffffffffffffffffffffffff166323b872dd33308d6040518463ffffffff1660e01b815260040161038d93929190610d6f565b6020604051808303816000875af11580156103ac573d6000803e3d6000fd5b505050506040513d601f19601f820116820180604052508101906103d09190610dde565b90506103e6675861299407a3ac3360c01b6108a3565b6103fa6790903bb1b425485960c01b6108a3565b61040e6790a612071abeb74760c01b6108a3565b8061044e576040517f08c379a000000000000000000000000000000000000000000000000000000000815260040161044590610e57565b60405180910390fd5b6104626725cd29e1d7746f5760c01b6108a3565b6104766753066d8537a3a0a660c01b6108a3565b61048a677501ad3e89c5d49b60c01b6108a3565b600060028b6104999190610ea6565b90506104af6783235233e071d40460c01b6108a3565b6104c3673e7abe3a3d1db4cf60c01b6108a3565b6104d767282ec96a5c503c0060c01b6108a3565b8981101561051a576040517f08c379a000000000000000000000000000000000000000000000000000000000815260040161051190610f5a565b60405180910390fd5b61052e670cc08d1af025929860c01b6108a3565b610542674dfcf597d8fd938460c01b6108a3565b8273ffffffffffffffffffffffffffffffffffffffff1663a9059cbb88836040518363ffffffff1660e01b815260040161057d929190610f7a565b6020604051808303816000875af115801561059c573d6000803e3d6000fd5b505050506040513d601f19601f820116820180604052508101906105c09190610dde565b91506105d667b37397025631cadb60c01b6108a3565b6105ea67b39a6b60f2cec72160c01b6108a3565b6105fe674a7af9a8af200dd260c01b6108a3565b8161063e576040517f08c379a000000000000000000000000000000000000000000000000000000000815260040161063590610fef565b60405180910390fd5b61065267c25b7b62679869bf60c01b6108a3565b610666677bce2fa9594b881b60c01b6108a3565b8888905067ffffffffffffffff8111156106835761068261100f565b5b6040519080825280602002602001820160405280156106b15781602001602082028036833780820191505090505b5094506106c867dc310feaaf765e1760c01b6108a3565b8a856000815181106106dd576106dc610d13565b5b6020026020010181815250506106fd67957dabeb9e3d3cda60c01b6108a3565b808560018151811061071257610711610d13565b5b602002602001018181525050505050509695505050505050565b60025481565b60008054906101000a900473ffffffffffffffffffffffffffffffffffffffff1681565b606061076c6712839f82b6400d1a60c01b6108a3565b61078067ffc178d44bb6c25460c01b6108a3565b8282905067ffffffffffffffff81111561079d5761079c61100f565b5b6040519080825280602002602001820160405280156107cb5781602001602082028036833780820191505090505b5090506107e2678015356d6cb5e86560c01b6108a3565b83816000815181106107f7576107f6610d13565b5b602002602001018181525050610817675623506f8bdd0c5060c01b6108a3565b6002846108249190610ea6565b8160018151811061083857610837610d13565b5b6020026020010181815250509392505050565b61085f677925930c0c389df660c01b6108a3565b61087367640729abd664fe7a60c01b6108a3565b8060028190555050565b600160009054906101000a900473ffffffffffffffffffffffffffffffffffffffff1681565b50565b600080fd5b600080fd5b6000819050919050565b6108c3816108b0565b81146108ce57600080fd5b50565b6000813590506108e0816108ba565b92915050565b600080fd5b600080fd5b600080fd5b60008083601f84011261090b5761090a6108e6565b5b8235905067ffffffffffffffff811115610928576109276108eb565b5b602083019150836020820283011115610944576109436108f0565b5b9250929050565b600073ffffffffffffffffffffffffffffffffffffffff82169050919050565b60006109768261094b565b9050919050565b6109868161096b565b811461099157600080fd5b50565b6000813590506109a38161097d565b92915050565b60008060008060008060a087890312156109c6576109c56108a6565b5b60006109d489828a016108d1565b96505060206109e589828a016108d1565b955050604087013567ffffffffffffffff811115610a0657610a056108ab565b5b610a1289828a016108f5565b94509450506060610a2589828a01610994565b9250506080610a3689828a016108d1565b9150509295509295509295565b600081519050919050565b600082825260208201905092915050565b6000819050602082019050919050565b610a78816108b0565b82525050565b6000610a8a8383610a6f565b60208301905092915050565b6000602082019050919050565b6000610aae82610a43565b610ab88185610a4e565b9350610ac383610a5f565b8060005b83811015610af4578151610adb8882610a7e565b9750610ae683610a96565b925050600181019050610ac7565b5085935050505092915050565b60006020820190508181036000830152610b1b8184610aa3565b905092915050565b610b2c816108b0565b82525050565b6000602082019050610b476000830184610b23565b92915050565b610b568161096b565b82525050565b6000602082019050610b716000830184610b4d565b92915050565b600080600060408486031215610b9057610b8f6108a6565b5b6000610b9e868287016108d1565b935050602084013567ffffffffffffffff811115610bbf57610bbe6108ab565b5b610bcb868287016108f5565b92509250509250925092565b600060208284031215610bed57610bec6108a6565b5b6000610bfb848285016108d1565b91505092915050565b600082825260208201905092915050565b7f5472616e73616374696f6e206578706972656400000000000000000000000000600082015250565b6000610c4b601383610c04565b9150610c5682610c15565b602082019050919050565b60006020820190508181036000830152610c7a81610c3e565b9050919050565b7f4f6e6c792074776f2d746f6b656e2073776170732061726520737570706f727460008201527f6564000000000000000000000000000000000000000000000000000000000000602082015250565b6000610cdd602283610c04565b9150610ce882610c81565b604082019050919050565b60006020820190508181036000830152610d0c81610cd0565b9050919050565b7f4e487b7100000000000000000000000000000000000000000000000000000000600052603260045260246000fd5b600060208284031215610d5857610d576108a6565b5b6000610d6684828501610994565b91505092915050565b6000606082019050610d846000830186610b4d565b610d916020830185610b4d565b610d9e6040830184610b23565b949350505050565b60008115159050919050565b610dbb81610da6565b8114610dc657600080fd5b50565b600081519050610dd881610db2565b92915050565b600060208284031215610df457610df36108a6565b5b6000610e0284828501610dc9565b91505092915050565b7f5472616e73666572206f6620746f6b656e496e206661696c6564000000000000600082015250565b6000610e41601a83610c04565b9150610e4c82610e0b565b602082019050919050565b60006020820190508181036000830152610e7081610e34565b9050919050565b7f4e487b7100000000000000000000000000000000000000000000000000000000600052601160045260246000fd5b6000610eb1826108b0565b9150610ebc836108b0565b9250828202610eca816108b0565b91508282048414831517610ee157610ee0610e77565b5b5092915050565b7f556e69737761705632526f757465723a20494e53554646494349454e545f4f5560008201527f545055545f414d4f554e54000000000000000000000000000000000000000000602082015250565b6000610f44602b83610c04565b9150610f4f82610ee8565b604082019050919050565b60006020820190508181036000830152610f7381610f37565b9050919050565b6000604082019050610f8f6000830185610b4d565b610f9c6020830184610b23565b9392505050565b7f5472616e73666572206f6620746f6b656e4f7574206661696c65640000000000600082015250565b6000610fd9601b83610c04565b9150610fe482610fa3565b602082019050919050565b6000602082019050818103600083015261100881610fcc565b9050919050565b7f4e487b7100000000000000000000000000000000000000000000000000000000600052604160045260246000fdfea26469706673582212203195932289fc41de0ac2a11f2afc568ab7ead62c6bcfbe5185df0803f083b0b264736f6c634300081b0033",
  "linkReferences": {},
  "deployedLinkReferences": {}
}